:020000040800F2
:100000000028002001170008691400087114000876
:100010007914000881140008891400080000000009
:100020000000000000000000000000009114000823
:100030009D14000800000000A9140008B514000871
:100040004917000849170008491700084917000810
:100050004917000849170008491700084917000800
:1000600049170008491700084917000849170008F0
:1000700049170008491700084917000849170008E0
:1000800049170008491700084917000849170008D0
:1000900049170008491700084917000849170008C0
:1000A00049170008491700084917000849170008B0
:1000B000C114000849170008000000004917000893
:1000C0004917000800000000000000004917000860
:1000D0000000000049170008491700080000000050
:1000E00049170008491700084917000800000000D8
:1000F0000000000000000000000000000000000000
:0C01000000000000000000005FF808F1A3
:10010C0010B5054C237833B9044B13B10448AFF345
:10011C0000800123237010BD380000200000000077
:10012C00802D000808B5034B1BB103490348AFF3FE
:10013C00008008BD000000003C000020802D00085D
:10014C0080B584B000AF464B1B68032B79DD444B64
:10015C001B68062B75DC424B1B68042B09D1032052
:10016C0001F0D8F9042001F0C5F9052001F0C2F91D
:10017C001AE03B4B1B68052B09D1042001F0CAF98E
:10018C00032001F0B7F9052001F0B4F90CE0344B71
:10019C001B68062B08D1052001F0BCF9032001F0E7
:1001AC00A9F9042001F0A6F9032001F093F9034604
:1001BC00002B12D008212B4801F0DDFD40212948ED
:1001CC0001F0D9FD284B1B684FF4FA7202FB03F3C4
:1001DC00FB60F968032001F0ADF9042001F07AF915
:1001EC000346002B12D010211E4801F0C4FD8021C3
:1001FC001C4801F0C0FD1D4B1B684FF4FA7202FB4A
:10020C0003F3BB60B968042001F094F9052001F0F8
:10021C0061F90346002B1ED02021124801F0ABFDE2
:10022C004FF480710F4801F0A6FD114B1B684FF481
:10023C00FA7202FB03F37B607968052001F07AF90E
:10024C0009E0032001F056F9042001F053F90520D0
:10025C0001F050F900BF00BF1037BD4680BD00BF94
:10026C0054000020000C014000000020040000207D
:10027C000800002080B500AF1A4B05221A601A4BFB
:10028C0003221A60174B1B68184600F00DFC164B26
:10029C001B68184600F098FD144B1B684FF4FA725B
:1002AC0002FB03F31946032001F044F9104B1B68C1
:1002BC004FF4FA7202FB03F31946042001F03AF9E9
:1002CC000C4B1B684FF4FA7202FB03F31946052022
:1002DC0001F030F900F012F8074B00221A6000BF51
:1002EC0080BD00BF6C0000207000002000000020CA
:1002FC0004000020080000205400002080B500AF4E
:10030C000F4B05221A600F4B03221A60002001F0DC
:10031C0001F9012001F0FEF8032001F0EBF80420B4
:10032C0001F0E8F8052001F0E5F80021002001F0CB
:10033C0001F940F6B831012001F0FCF800BF80BD96
:10034C006C0000207000002080B500AF044B02222E
:10035C001A604FF4FA61012001F0ECF800BF80BD87
:10036C007000002080B500AF064B03221A60064BCC
:10037C0005221A6040F6B831012001F0DBF800BF0D
:10038C0080BD00BF6C0000207000002080B500AF65
:10039C00044B02221A604FF4FA61012001F0CAF8F2
:1003AC0000BF80BD6C00002080B500AF01F014F9D7
:1003BC00002001F09FF8012001F09CF800BF80BDE7
:1003CC0080B500AF01F008F9002001F093F801208E
:1003DC0001F090F800BF80BD80B500AF01F0FCF8D3
:1003EC00002001F087F8012001F084F800BF80BDE7
:1003FC0080B500AF01F016F9002001F06BF8034650
:10040C00002B18D00D4B1B68184600F04DFB0C4B05
:10041C001B68184600F0D8FC084B1B68013B074AC8
:10042C001360074B1B68013B054A13604FF47A714C
:10043C00002001F07FF800BF80BD00BF6C000020E1
:10044C007000002080B500AF01F012F9002001F01F
:10045C0041F80346002B18D00D4B1B68184600F0D2
:10046C0023FB0C4B1B68184600F0AEFC084B1B68BA
:10047C00013B074A1360074B1B68013B054A13609D
:10048C004FF47A71002001F055F800BF80BD00BF19
:10049C006C0000207000002080B500AF01F0FAF86D
:1004AC00002001F017F80346002B18D00D4B1B68E9
:1004BC00184600F0F9FA0C4B1B68184600F084FC47
:1004CC00084B1B68013B074A1360074B1B68013B39
:1004DC00054A13604FF47A71002001F02BF800BF2D
:1004EC0080BD00BF6C0000207000002080B500AF04
:1004FC0001F0EAF8002000F0EDFF0346002B18D0C5
:10050C000D4B1B68184600F0CFFA0C4B1B681846B5
:10051C0000F05AFC084B1B68013B074A1360074B61
:10052C001B68013B054A13604FF47A71002001F0FF
:10053C0001F800BF80BD00BF6C00002070000020DF
:10054C0080B500AF1C4B1B681C4A82FB0312921037
:10055C00DB17D31A184600F0A7FA194B1B68023B9D
:10056C00184600F031FC012000F0C2F90346002BC4
:10057C000BD0114B1B6801330F4A13600E4B1B68D9
:10058C00632B02DD0C4B01221A60022000F0B0F943
:10059C000346002B0DD0084B1B680A4A1360094B0D
:1005AC001B684FF4FA7202FB03F31946032000F0A8
:1005BC00C1FF00BF80BD00BF0C00002067666666EF
:1005CC00540000200000002080B500AF1A4B1B68BF
:1005DC001A4A82FB03129210DB17D31A184600F04A
:1005EC0063FA174B1B68023B184600F0EDFB154BEA
:1005FC005B78012B0BD1104B1B6801330E4A136037
:10060C000D4B1B68632B02DD0B4B01221A600D4B4B
:10061C009B78012B0DD1084B1B680B4A13600B4BBD
:10062C001B684FF4FA7202FB03F31946042000F026
:10063C0081FF00BF80BD00BF1000002067666666AA
:10064C005400002058000020040000200800002066
:10065C0080B500AF1A4B1B681A4A82FB031292102A
:10066C00DB17D31A184600F01FFA174B1B68023B16
:10067C00184600F0A9FB154B5B78012B0BD1104BE6
:10068C001B6801330E4A13600D4B1B68632B02DD94
:10069C000B4B01221A600D4B9B78012B0DD1084B93
:1006AC001B680B4A13600A4B1B684FF4FA7202FB6F
:1006BC0003F31946052000F03DFF00BF80BD00BFCD
:1006CC001400002067666666540000205800002065
:1006DC000800002080B500AF544B1B68062B00F2BD
:1006EC00938001A252F823F0110700084307000879
:1006FC00710700089F070008CD070008E5070008F0
:10070C00FD070008FFF774FE012000F0E3FE03462E
:10071C00002B04D0FFF718FE444B01221A60002076
:10072C0000F0E6F80346002B70D0FFF73DFE3F4B80
:10073C0004221A606AE0FFF785FE012000F0CAFE71
:10074C000346002B04D0FFF70DFE384B02221A6033
:10075C00374B1B78012B5BD1FFF726FE334B042262
:10076C001A6055E0FFF798FE012000F0B3FE034637
:10077C00002B04D0FFF70AFE2C4B03221A602C4BE3
:10078C001B78012B46D1FFF70FFE284B04221A6071
:10079C0040E0FFF7ABFE012000F09CFE0346002B6F
:1007AC0004D0FFF7ABFD214B00221A60204B1B78C5
:1007BC00012B31D1FFF7F8FD1C4B04221A602BE002
:1007CC00FFF7BEFE1A4B1B78012B27D1FFF7F8FD64
:1007DC00164B05221A6021E0FFF7F6FE144B1B782E
:1007EC00012B1DD1FFF7F8FD104B06221A6017E004
:1007FC00FFF72EFF0E4B1B78012B13D1FFF77EFD5D
:10080C000A4B00221A600DE000BF0CE000BF0AE0AA
:10081C0000BF08E000BF06E000BF04E000BF02E03C
:10082C0000BF00E000BF00BF80BD00BF540000202F
:10083C005800002080B582B000AF00237B604CE0F4
:10084C002A4A7B6813441B78022B30D0022B41DCE4
:10085C00002B02D0012B0ED03CE07B68DBB218469B
:10086C0000F046F80346002B2FD0204A7B68134437
:10087C0001221A7029E07B68DBB2184600F038F8C8
:10088C000346002B05D1194A7B68134400221A70C9
:10089C001DE07B68DBB2184600F048F80346002BDD
:1008AC0015D0124A7B68134402221A700FE07B6841
:1008BC00DBB2184600F01CF80346002B09D10B4A9A
:1008CC007B68134400221A7003E000BF02E000BFF3
:1008DC0000E000BF7B6801337B607B68022BAFDDDF
:1008EC0000BF00BF0837BD4680BD00BF58000020C8
:1008FC0080B483B000AF0346FB71FB79022B01D9A6
:10090C0000230BE0FB79084AD35C002B05D0FB7964
:10091C00054A0021D154012300E0002318460C376E
:10092C00BD4680BC704700BF5C00002080B483B023
:10093C0000AF0346FB71FB79022B01D9FF230BE0BF
:10094C00FB79084AD35C002B05D0FB79054A0021C2
:10095C00D154012300E0002318460C37BD4680BC5F
:10096C00704700BF6000002080B582B000AF00234C
:10097C007B6082E0454A7B6813441978444A7B6863
:10098C0013440A461A70434A7B68134419783F4A49
:10099C007B6813440A461A707B68002B0BD101212B
:1009AC003D4801F0B9F9034619463A4A7B681344AD
:1009BC000A461A701CE07B68012B0BD102213648C9
:1009CC0001F0AAF903461946324A7B6813440A46D9
:1009DC001A700DE07B68022B0AD104212E4801F01D
:1009EC009BF9034619462B4A7B6813440A461A7036
:1009FC00284A7B6813441A7824497B680B441B787B
:100A0C009A4237D1214A7B6813441A7820497B6873
:100A1C000B441B789A422DD11E4A7B6813441A78DA
:100A2C001E497B680B441B789A4219D0194A7B6883
:100A3C0013441978194A7B6813440A461A70174AEA
:100A4C007B6813441B78002B14D1154A7B686421F6
:100A5C0022F81310134A7B68134401221A7009E020
:100A6C000F4A7B6832F81330013B99B20C4A7B6811
:100A7C0022F813107B6801337B607B68022B7FF7B5
:100A8C0079AF00BF00BF0837BD4680BD20000020F5
:100A9C00240000201C000020000C01401800002045
:100AAC00640000205C00002080B582B000AF78604C
:100ABC007B68002B23D100220121C24801F043F9AD
:100ACC0000220221BF4801F03EF900220421BD485A
:100ADC0001F039F900220821BA4801F034F900225A
:100AEC001021B84801F02FF900222021B54801F05F
:100AFC002AF901224021B34801F025F95DE17B6818
:100B0C00012B23D101220121AE4801F01CF9002256
:100B1C000221AC4801F017F900220421A94801F088
:100B2C0012F901220821A74801F00DF90122102128
:100B3C00A44801F008F901222021A24801F003F990
:100B4C00012240219F4801F0FEF836E17B68022B20
:100B5C0023D1002201219B4801F0F5F8002202214B
:100B6C00984801F0F0F801220421964801F0EBF8C6
:100B7C0000220821934801F0E6F800221021914848
:100B8C0001F0E1F8012220218E4801F0DCF800226E
:100B9C0040218C4801F0D7F80FE17B68032B23D15F
:100BAC0000220121874801F0CEF80022022185485D
:100BBC0001F0C9F800220421824801F0C4F8002297
:100BCC000821804801F0BFF8012210217D4801F076
:100BDC00BAF8012220217B4801F0B5F8002240210F
:100BEC00784801F0B0F8E8E07B68042B23D10122AF
:100BFC000121744801F0A7F800220221714801F08C
:100C0C00A2F8002204216F4801F09DF8012208216E
:100C1C006C4801F098F8012210216A4801F093F811
:100C2C0000222021674801F08EF8002240216548FF
:100C3C0001F089F8C1E07B68052B23D1002201214A
:100C4C00604801F080F8012202215E4801F07BF837
:100C5C00002204215B4801F076F800220821594853
:100C6C0001F071F801221021564801F06CF80022B5
:100C7C002021544801F067F800224021514801F02E
:100C8C0062F89AE07B68062B23D1002201214D48A3
:100C9C0001F059F8012202214A4801F054F80022CF
:100CAC000421484801F04FF800220821454801F082
:100CBC004AF800221021434801F045F80022202177
:100CCC00404801F040F8002240213E4801F03BF83A
:100CDC0073E07B68072B23D100220121394801F0F6
:100CEC0032F800220221374801F02DF800220421AD
:100CFC00344801F028F801220821324801F023F889
:100D0C00012210212F4801F01EF8012220212D482C
:100D1C0001F019F8012240212A4801F014F84CE0A6
:100D2C007B68082B23D100220121264801F00BF807
:100D3C0000220221234801F006F800220421214858
:100D4C0001F001F8002208211E4800F0FCFF0022EF
:100D5C0010211C4800F0F7FF00222021194800F058
:100D6C00F2FF00224021174800F0EDFF25E07B68E0
:100D7C00092B22D100220121124800F0E4FF0022AD
:100D8C000221104800F0DFFF002204210D4800F082
:100D9C00DAFF002208210B4800F0D5FF01221021B8
:100DAC00084800F0D0FF00222021064800F0CBFFBD
:100DBC0000224021034800F0C6FF00BF0837BD46A3
:100DCC0080BD00BF0008014080B582B000AF7860E4
:100DDC007B68002B2AD100224FF48071CB4800F0A5
:100DEC00B2FF00224FF40071C84800F0ACFF0022A3
:100DFC004FF48061C54800F0A6FF00224FF400615B
:100E0C00C24800F0A0FF00224FF48051BF4800F010
:100E1C009AFF00224FF40051BC4800F094FF0122CD
:100E2C004FF48041B94800F08EFF9EE17B68012BA6
:100E3C002AD101224FF48071B44800F084FF0022C3
:100E4C004FF40071B14800F07EFF00224FF4806136
:100E5C00AE4800F078FF01224FF40061AB4800F07F
:100E6C0072FF01224FF48051A84800F06CFF012260
:100E7C004FF40051A54800F066FF01224FF4804169
:100E8C00A24800F060FF70E17B68022B2AD100229F
:100E9C004FF480719D4800F056FF00224FF4007112
:100EAC009A4800F050FF01224FF48061974800F0FF
:100EBC004AFF00224FF40061944800F044FF0022E6
:100ECC004FF48051914800F03EFF01224FF4005145
:100EDC008E4800F038FF00224FF480418B4800F020
:100EEC0032FF42E17B68032B2AD100224FF4807140
:100EFC00864800F028FF00224FF40071834800F070
:100F0C0022FF00224FF48061804800F01CFF002279
:100F1C004FF400617D4800F016FF01224FF4805120
:100F2C007A4800F010FF01224FF40051774800F08E
:100F3C000AFF00224FF48041744800F004FF14E1D2
:100F4C007B68042B2AD101224FF480716F4800F08A
:100F5C00FAFE00224FF400716C4800F0F4FE0022FF
:100F6C004FF48061694800F0EEFE01224FF40061FD
:100F7C00664800F0E8FE01224FF48051634800F00F
:100F8C00E2FE00224FF40051604800F0DCFE00222B
:100F9C004FF480415D4800F0D6FEE6E07B68052BFF
:100FAC002AD100224FF48071584800F0CCFE012267
:100FBC004FF40071554800F0C6FE00224FF48061DA
:100FCC00524800F0C0FE00224FF400614F4800F080
:100FDC00BAFE01224FF480514C4800F0B4FE0022BE
:100FEC004FF40051494800F0AEFE00224FF480410E
:100FFC00464800F0A8FEB8E07B68062B2AD10022F8
:10100C004FF48071414800F09EFE01224FF40071B4
:10101C003E4800F098FE00224FF480613B4800F0FF
:10102C0092FE00224FF40061384800F08CFE002242
:10103C004FF48051354800F086FE00224FF40051E9
:10104C00324800F080FE00224FF480412F4800F01F
:10105C007AFE8AE07B68072B2AD100224FF480713C
:10106C002A4800F070FE00224FF40071274800F06F
:10107C006AFE00224FF48061244800F064FE0122D5
:10108C004FF40061214800F05EFE01224FF48051C4
:10109C001E4800F058FE01224FF400511B4800F08E
:1010AC0052FE01224FF48041184800F04CFE5CE0E7
:1010BC007B68082B2CD100224FF48071134800F070
:1010CC0042FE00224FF40071104800F03CFE00225A
:1010DC004FF480610D4800F036FE00224FF40061A1
:1010EC000A4800F030FE00224FF48051074800F00F
:1010FC002AFE00224FF40051044800F024FE002286
:10110C004FF48041014800F01EFE2EE00008014023
:10111C007B68092B29D100224FF48071154800F00F
:10112C0012FE00224FF40071124800F00CFE002257
:10113C004FF480610F4800F006FE00224FF400616E
:10114C000C4800F000FE01224FF48051094800F0D9
:10115C00FAFD00224FF40051064800F0F4FD002285
:10116C004FF48041034800F0EEFD00BF0837BD4648
:10117C0080BD00BF0008014080B582B000AF786030
:10118C007B681B68B3F1804F03D1FFF7EDFB00F0D8
:10119C00EFF900BF0837BD4680BD000080B500AF39
:1011AC0000F0CEFA00F014F800F09AF800F04CF8C9
:1011BC00FFF760F8054801F025FAFFF73BFBFFF756
:1011CC0089FAFEF7BDFF00BFF7E700BF74000020EF
:1011DC0080B590B000AF07F1180328220021184603
:1011EC0001F09CFD3B1D00221A605A609A60DA6087
:1011FC001A610223BB610123BB621023FB62002333
:10120C007B6307F11803184600F0CEFD0346002B54
:10121C0001D000F0C7F80F237B600023BB600023D4
:10122C00FB6000233B6100237B613B1D00211846C2
:10123C0001F03CF80346002B01D000F0B3F800BFDE
:10124C004037BD4680BD000080B586B000AF07F1C9
:10125C00080300221A605A609A60DA603B4600224A
:10126C001A605A601D4B4FF080421A601B4B41F6BE
:10127C003F725A60194B00229A60184B0922DA60AF
:10128C00164B00221A61154B00229A61134801F08B
:10129C0069F90346002B01D000F084F84FF4805319
:1012AC00BB6007F1080319460C4801F0E7FA034646
:1012BC00002B01D000F076F800233B6000237B600C
:1012CC003B461946054801F0BFFC0346002B01D0F4
:1012DC0000F068F800BF1837BD4680BD74000020D0
:1012EC0080B586B000AF07F1080300221A605A607F
:1012FC009A60DA60284B9B69274A43F00403936198
:10130C00254B9B6903F004037B607B68224B9B6934
:10131C00214A43F0080393611F4B9B6903F00803B8
:10132C003B603B68002247F6FF711C4800F00BFD48
:10133C0000224FF2F8111A4800F005FD47F6FF7332
:10134C00BB600123FB6000233B6102237B6107F13F
:10135C0008031946114800F063FB0723BB60002308
:10136C00FB6000233B6107F1080319460C4800F0B1
:10137C0057FB4FF2F813BB600123FB6000233B616A
:10138C0002237B6107F108031946054800F048FB6E
:10139C0000BF1837BD4680BD001002400008014058
:1013AC00000C014080B400AF72B600BF00BFFDE777
:1013BC0080B485B000AF154B9B69144A43F0010310
:1013CC009361124B9B6903F00103BB60BB680F4B2D
:1013DC00DB690E4A43F08053D3610C4BDB6903F09D
:1013EC0080537B607B680A4B5B68FB60FB6823F077
:1013FC00E063FB60FB6843F08063FB60044AFB68BE
:10140C00536000BF1437BD4680BC704700100240CB
:10141C000000014080B584B000AF78607B681B6829
:10142C00B3F1804F13D10C4BDB690B4A43F0010332
:10143C00D361094BDB6903F00103FB60FB680022FD
:10144C0000211C2000F0B5FA1C2000F0CEFA00BFE1
:10145C001037BD4680BD00BF0010024080B400AF05
:10146C0000BFFDE780B400AF00BFFDE780B400AF64
:10147C0000BFFDE780B400AF00BFFDE780B400AF54
:10148C0000BFFDE780B400AF00BFBD4680BC704715
:10149C0080B400AF00BFBD4680BC704780B400AFC5
:1014AC0000BFBD4680BC704780B500AF00F08EF920
:1014BC0000BF80BD80B500AF024801F0EFF800BF5F
:1014CC0080BD00BF7400002080B400AF00BFBD46DB
:1014DC0080BC704780B483B000AF7860044A7B68EE
:1014EC0052F8233018460C37BD4680BC704700BFFD
:1014FC00D400002080B483B000AF7860044A7B68CD
:10150C00012142F8231000BF0C37BD4680BC704748
:10151C00BC00002080B483B000AF7860044A7B68C4
:10152C00002142F8231000BF0C37BD4680BC704729
:10153C00BC00002080B483B000AF78603960094BE8
:10154C001B683A6892FBF3F207497B6841F8232049
:10155C00064A7B68002142F8231000BF0C37BD46B9
:10156C0080BC70472C000020EC000020D400002030
:10157C0080B483B000AF00237B601EE0134A7B680D
:10158C0052F82330002B14D1114A7B6852F82330C7
:10159C005A1E0F497B6841F823200D4A7B6852F88C
:1015AC002330002B06DC0B4A7B68012142F8231008
:1015BC0000E000BF7B6801337B607B68052BDDDDC1
:1015CC0000BF00BF0C37BD4680BC7047BC0000207C
:1015DC00EC000020D400002080B500AF00220821D0
:1015EC000F4800F0B0FB002210210D4800F0ABFBBF
:1015FC00002220210A4800F0A6FB002240210848C6
:10160C0000F0A1FB00228021054800F09CFB002289
:10161C004FF48071024800F096FB00BF80BD00BF04
:10162C00000C014080B500AF012208210F4800F0EA
:10163C008AFB01224FF480710C4800F084FB0022DD
:10164C0020210A4800F07FFB00221021074800F0FF
:10165C007AFB00224021054800F075FB0022802116
:10166C00024800F070FB00BF80BD00BF000C0140C1
:10167C0080B500AF00224FF48071054800F063FB89
:10168C0001228021024800F05EFB00BF80BD00BF3C
:10169C00000C014080B500AF00220821094800F081
:1016AC0052FB00228021074800F04DFB0122402113
:1016BC00044800F048FB01222021024800F043FBC3
:1016CC0000BF80BD000C014080B500AF002220217E
:1016DC00074800F038FB01221021054800F033FBCD
:1016EC0001224021024800F02EFB00BF80BD00BF4C
:1016FC00000C0140FFF7E8FE0B480C490C4A002394
:10170C0002E0D458C4500433C4188C42F9D3094AAB
:10171C00094C002301E013600432A242FBD301F018
:10172C0005FBFFF73BFD7047000000203800002050
:10173C00C42D00083800002008010020FEE700003E
:10174C0080B500AF084B1B68074A43F010031360C9
:10175C00032000F023F90F2000F008F8FFF728FE13
:10176C000023184680BD00BF0020024080B582B027
:10177C0000AF7860124B1A68124B1B7819464FF465
:10178C007A73B3FBF1F3B2FBF3F3184600F03BF9B9
:10179C000346002B01D001230EE07B680F2B0AD8E7
:1017AC00002279684FF0FF3000F003F9064A7B689D
:1017BC001360002300E0012318460837BD4680BDA6
:1017CC0028000020340000203000002080B400AF3E
:1017DC00054B1B781A46054B1B681344034A1360D0
:1017EC0000BFBD4680BC70473400002004010020BF
:1017FC0080B400AF024B1B681846BD4680BC7047D6
:10180C000401002080B485B000AF78607B6803F0E1
:10181C000703FB600C4BDB68BB60BA684FF6FF0339
:10182C001340BB60FB681A02BB68134343F0BF63F1
:10183C0043F40033BB60044ABB68D36000BF143769
:10184C00BD4680BC704700BF00ED00E080B400AF27
:10185C00044BDB681B0A03F007031846BD4680BC2B
:10186C00704700BF00ED00E080B483B000AF0346CA
:10187C00FB7197F90730002B0BDBFB7903F01F0290
:10188C00064997F907305B09012000FA02F241F88A
:10189C00232000BF0C37BD4680BC704700E100E040
:1018AC0080B483B000AF03463960FB7197F9073001
:1018BC00002B0ADB3B68DAB20C4997F907301201AE
:1018CC00D2B20B4483F800230AE03B68DAB2084931
:1018DC00FB7903F00F03043B1201D2B20B441A76CE
:1018EC0000BF0C37BD4680BC704700BF00E100E074
:1018FC0000ED00E080B489B000AFF860B9607A60A8
:10190C00FB6803F00703FB61FB69C3F10703042BBE
:10191C0028BF0423BB61FB690433062B02D9FB6986
:10192C00033B00E000237B614FF0FF32BB6902FAFE
:10193C0003F3DA43BB681A407B699A404FF0FF31DE
:10194C007B6901FA03F3D9437B680B4013431846B8
:10195C002437BD4680BC704780B582B000AF78603C
:10196C007B68013BB3F1807F01D301230FE00A4A6E
:10197C007B68013B53600F214FF0FF30FFF790FF66
:10198C00054B00229A60044B07221A60002318466C
:10199C000837BD4680BD00BF10E000E080B582B0C6
:1019AC0000AF78607868FFF72DFF00BF0837BD46A1
:1019BC0080BD80B586B000AF0346B9607A60FB731A
:1019CC0000237B61FFF742FF78617A68B968786918
:1019DC00FFF790FF024697F90F3011461846FFF7B4
:1019EC005FFF00BF1837BD4680BD80B582B000AF29
:1019FC000346FB7197F907301846FFF735FF00BF18
:101A0C000837BD4680BD80B582B000AF786078687D
:101A1C00FFF7A2FF034618460837BD4680BD0000FD
:101A2C0080B48BB000AF7860396000237B620023F8
:101A3C003B6261E101227B6A02FA03F3FB613B68C2
:101A4C001B68FA691340BB61BA69FB699A4240F0A2
:101A5C0050813B685B68974A93425ED0954A9342AB
:101A6C0075D8954A934258D0934A93426FD8934A6B
:101A7C00934252D0914A934269D8914A93424CD0A6
:101A8C008F4A934263D88F4A934246D08D4A9342F1
:101A9C005DD8122B2AD8122B59D801A252F823F058
:101AAC00271B0008011B0008131B0008551B00080E
:101ABC005B1B00085B1B00085B1B00085B1B000822
:101ACC005B1B00085B1B00085B1B00085B1B000812
:101ADC005B1B00085B1B00085B1B00085B1B000802
:101AEC005B1B0008091B00081D1B0008764A93426B
:101AFC0013D02CE03B68DB683B6229E03B68DB6879
:101B0C0004333B6224E03B68DB6808333B621FE034
:101B1C003B68DB680C333B621AE03B689B68002B2C
:101B2C0002D104233B6213E03B689B68012B05D177
:101B3C0008233B627B68FA691A6109E008233B625F
:101B4C007B68FA695A6103E000233B6200E000BF46
:101B5C00BB69FF2B01D87B6801E07B6804337B6198
:101B6C00BB69FF2B02D87B6A9B0002E07B6A083BB7
:101B7C009B003B617B691A680F213B6901FA03F3F7
:101B8C00DB431A40396A3B6901FA03F31A437B6958
:101B9C001A603B685B6803F08053002B00F0A9804F
:101BAC004A4B9B69494A43F001039361474B9B693C
:101BBC0003F00103BB60BB68454A7B6A9B08023398
:101BCC0052F82330FB607B6A03F003039B000F2267
:101BDC0002FA03F3DB43FA681340FB607B683D4A6F
:101BEC0093420DD07B683C4A934207D07B683B4ABA
:101BFC00934201D1022304E0032302E0012300E01D
:101C0C0000237A6A02F0030292009340FA681343AD
:101C1C00FB602F497B6A9B080233FA6841F823204A
:101C2C003B685B6803F48013002B06D02C4B9A683E
:101C3C002B49BB6913438B6006E0294B9A68BB693F
:101C4C00DB43274913408B603B685B6803F400134C
:101C5C00002B06D0224BDA682149BB691343CB60B9
:101C6C0006E01F4BDA68BB69DB431D491340CB60B0
:101C7C003B685B6803F40033002B06D0184B5A68A2
:101C8C001749BB6913434B6006E0154B5A68BB6997
:101C9C00DB43134913404B603B685B6803F48033B0
:101CAC00002B1FD00E4B1A680D49BB6913430B60F8
:101CBC001FE000BF000032100000311000002210A5
:101CCC000000211000001210000011100010024042
:101CDC000000014000080140000C014000100140D0
:101CEC00000401400B4B1A68BB69DB4309491340E4
:101CFC000B607B6A01337B623B681A687B6A22FA51
:101D0C0003F3002B7FF496AE00BF00BF2C37BD460B
:101D1C0080BC70470004014080B485B000AF78608F
:101D2C000B467B807B689A687B881340002B02D023
:101D3C000123FB7301E00023FB73FB7B1846143774
:101D4C00BD4680BC704780B483B000AF78600B4652
:101D5C007B8013467B707B78002B03D07A887B6862
:101D6C001A6103E07B881A047B681A6100BF0C3788
:101D7C00BD4680BC704780B485B000AF78600B4620
:101D8C007B807B68DB68FB607A88FB6813401A04F5
:101D9C00FB68D9437B880B401A437B681A6100BFF0
:101DAC001437BD4680BC704780B586B000AF7860F4
:101DBC007B68002B01D1012372E27B681B6803F066
:101DCC000103002B00F08780924B5B6803F00C033F
:101DDC00042B0CD08F4B5B6803F00C03082B12D137
:101DEC008C4B5B6803F48033B3F5803F0BD1894B8C
:101DFC001B6803F40033002B6CD07B685B68002BF2
:101E0C0068D101234CE27B685B68B3F5803F06D157
:101E1C00804B1B687F4A43F4803313602EE07B6851
:101E2C005B68002B0CD17B4B1B687A4A23F4803304
:101E3C001360784B1B68774A23F4802313601DE0F2
:101E4C007B685B68B3F5A02F0CD1724B1B68714A91
:101E5C0043F4802313606F4B1B686E4A43F480334A
:101E6C0013600BE06B4B1B686A4A23F480331360DE
:101E7C00684B1B68674A23F4802313607B685B689C
:101E8C00002B13D0FFF7B4FC386108E0FFF7B0FC6F
:101E9C0002463B69D31A642B01D9032300E25D4B44
:101EAC001B6803F40033002BF0D014E0FFF7A0FC08
:101EBC00386108E0FFF79CFC02463B69D31A642B9F
:101ECC0001D90323ECE1534B1B6803F40033002BC3
:101EDC00F0D100E000BF7B681B6803F00203002B0D
:101EEC0063D04C4B5B6803F00C03002B0BD0494BBD
:101EFC005B6803F00C03082B1CD1464B5B6803F4A6
:101F0C008033002B16D1434B1B6803F00203002BCC
:101F1C0005D07B681B69012B01D00123C0E13D4B2F
:101F2C001B6823F0F8027B685B69DB0039491343BB
:101F3C000B603AE07B681B69002B20D0364B0122EA
:101F4C001A60FFF755FC386108E0FFF751FC0246B8
:101F5C003B69D31A022B01D90323A1E12D4B1B683A
:101F6C0003F00203002BF0D02A4B1B6823F0F8027D
:101F7C007B685B69DB00274913430B6015E0264B3C
:101F8C0000221A60FFF734FC386108E0FFF730FCE0
:101F9C0002463B69D31A022B01D9032380E11D4B66
:101FAC001B6803F00203002BF0D17B681B6803F065
:101FBC000803002B3AD07B689B69002B19D0174B78
:101FCC0001221A60FFF714FC386108E0FFF710FCDF
:101FDC0002463B69D31A022B01D9032360E10D4B56
:101FEC005B6A03F00203002BF0D0012000F09CFA96
:101FFC001CE00A4B00221A60FFF7FAFB38610FE075
:10200C00FFF7F6FB02463B69D31A022B08D90323D0
:10201C0046E100BF001002400000424280044242F0
:10202C00924B5B6A03F00203002BE9D17B681B68BF
:10203C0003F00403002B00F0A6800023FB758B4BF0
:10204C00DB6903F08053002B0DD1884BDB69874A89
:10205C0043F08053D361854BDB6903F08053BB6045
:10206C00BB680123FB75824B1B6803F48073002B48
:10207C0018D17F4B1B687E4A43F480731360FFF7C3
:10208C00B7FB386108E0FFF7B3FB02463B69D31A94
:10209C00642B01D9032303E1754B1B6803F4807394
:1020AC00002BF0D07B68DB68012B06D16F4B1B6AD1
:1020BC006E4A43F0010313622DE07B68DB68002B52
:1020CC000CD16A4B1B6A694A23F001031362674BFC
:1020DC001B6A664A23F0040313621CE07B68DB680E
:1020EC00052B0CD1614B1B6A604A43F0040313624D
:1020FC005E4B1B6A5D4A43F0010313620BE05B4BC2
:10210C001B6A5A4A23F001031362584B1B6A574A45
:10211C0023F0040313627B68DB68002B15D0FFF7F8
:10212C0067FB38610AE0FFF763FB02463B69D31A91
:10213C0041F28832934201D90323B1E04B4B1B6A25
:10214C0003F00203002BEED014E0FFF751FB3861D3
:10215C000AE0FFF74DFB02463B69D31A41F2883285
:10216C00934201D903239BE0404B1B6A03F002030B
:10217C00002BEED1FB7D012B05D13C4BDB693B4A9F
:10218C0023F08053D3617B68DB69002B00F08780E0
:10219C00364B5B6803F00C03082B61D07B68DB6962
:1021AC00022B46D1334B00221A60FFF721FB38611A
:1021BC0008E0FFF71DFB02463B69D31A022B01D93D
:1021CC0003236DE0294B1B6803F00073002BF0D147
:1021DC007B681B6AB3F5803F08D1244B5B6823F402
:1021EC0000327B689B68214913434B601F4B5B6833
:1021FC0023F474127B68196A7B685B6A0B431B4976
:10220C0013434B601B4B01221A60FFF7F1FA386144
:10221C0008E0FFF7EDFA02463B69D31A022B01D90D
:10222C0003233DE0114B1B6803F00073002BF0D02F
:10223C0035E0104B00221A60FFF7DAFA386108E03B
:10224C00FFF7D6FA02463B69D31A022B01D90323B6
:10225C0026E0064B1B6803F00073002BF0D11EE048
:10226C007B68DB69012B07D1012319E000100240C8
:10227C0000700040600042420B4B5B68FB60FB68E7
:10228C0003F480327B681B6A9A4206D1FB6803F424
:10229C0070127B685B6A9A4201D0012300E0002334
:1022AC0018461837BD4680BD0010024080B584B07A
:1022BC0000AF786039607B68002B01D10123D0E03E
:1022CC006A4B1B6803F007033A689A4210D9674BB4
:1022DC001B6823F0070265493B6813430B60634B93
:1022EC001B6803F007033A689A4201D00123B8E057
:1022FC007B681B6803F00203002B20D07B681B68F3
:10230C0003F00403002B05D0594B5B68584A43F487
:10231C00E06353607B681B6803F00803002B05D057
:10232C00534B5B68524A43F460535360504B5B68A9
:10233C0023F0F0027B689B684D4913434B607B682C
:10234C001B6803F00103002B40D07B685B68012BFA
:10235C0007D1474B1B6803F40033002B15D1012325
:10236C007FE07B685B68022B07D1414B1B6803F055
:10237C000073002B09D1012373E03D4B1B6803F064
:10238C000203002B01D101236BE0394B5B6823F076
:10239C0003027B685B68364913434B60FFF728FAEE
:1023AC00F8600AE0FFF724FA0246FB68D31A41F200
:1023BC008832934201D9032353E02D4B5B6803F021
:1023CC000C027B685B689B009A42EBD1274B1B6825
:1023DC0003F007033A689A4210D2244B1B6823F08F
:1023EC00070222493B6813430B60204B1B6803F028
:1023FC0007033A689A4201D0012332E07B681B68DC
:10240C0003F00403002B08D0194B5B6823F4E06243
:10241C007B68DB68164913434B607B681B6803F0D1
:10242C000803002B09D0124B5B6823F460527B68C5
:10243C001B69DB000E4913434B6000F021F8024688
:10244C000B4B5B681B0903F00F030A49CB5C22FAA8
:10245C0003F3094A1360094B1B681846FFF786F90A
:10246C00002318461037BD4680BD00BF0020024037
:10247C0000100240982D0008280000203000002099
:10248C0080B487B000AF0023FB600023BB60002347
:10249C007B6100237B6000233B611E4B5B68FB6010
:1024AC00FB6803F00C03042B02D0082B03D027E0AD
:1024BC00194B3B6127E0FB689B0C03F00F03174A99
:1024CC00D35C7B60FB6803F48033002B10D0114B82
:1024DC005B685B0C03F00103114AD35CBB607B6847
:1024EC000D4A03FB02F2BB68B2FBF3F37B6104E021
:1024FC007B680C4A02FB03F37B617B693B6102E066
:10250C00054B3B6100BF3B6918461C37BD4680BC80
:10251C00704700BF0010024000127A00A82D00087E
:10252C00B82D000800093D0080B485B000AF78607C
:10253C000A4B1B680A4AA2FB03235B0A7A6802FB5C
:10254C0003F3FB6000BFFB685A1EFA60002BF9D145
:10255C0000BF00BF1437BD4680BC70472800002068
:10256C00D34D621080B582B000AF78607B68002BD1
:10257C0001D1012341E07B6893F83D30DBB2002BA5
:10258C0006D17B68002283F83C207868FEF742FF76
:10259C007B68022283F83D207B681A687B680433D1
:1025AC001946104600F056FA7B68012283F8462043
:1025BC007B68012283F83E207B68012283F83F2050
:1025CC007B68012283F840207B68012283F841203C
:1025DC007B68012283F842207B68012283F8432028
:1025EC007B68012283F844207B68012283F8452014
:1025FC007B68012283F83D20002318460837BD462E
:10260C0080BD000080B485B000AF78607B6893F823
:10261C003D30DBB2012B01D0012335E07B68022277
:10262C0083F83D207B681B68DA687B681B6842F086
:10263C000102DA607B681B68164A934209D07B68FA
:10264C001B68B3F1804F04D07B681B68124A93421D
:10265C0011D17B681B689B6803F00703FB60FB6868
:10266C00062B10D07B681B681A687B681B6842F0CD
:10267C0001021A6007E07B681B681A687B681B689C
:10268C0042F001021A60002318461437BD4680BC84
:10269C00704700BF002C01400004004080B584B09E
:1026AC0000AF78607B681B68DB68FB607B681B682D
:1026BC001B69BB60BB6803F00203002B20D0FB68D6
:1026CC0003F00203002B1BD07B681B686FF0020227
:1026DC001A617B6801221A777B681B689B6903F07F
:1026EC000303002B03D0786800F098F905E07868B4
:1026FC0000F08BF9786800F09AF97B6800221A7761
:10270C00BB6803F00403002B20D0FB6803F0040328
:10271C00002B1BD07B681B686FF004021A617B686E
:10272C0002221A777B681B689B6903F44073002BA9
:10273C0003D0786800F072F905E0786800F065F96C
:10274C00786800F074F97B6800221A77BB6803F094
:10275C000803002B20D0FB6803F00803002B1BD0D0
:10276C007B681B686FF008021A617B6804221A7779
:10277C007B681B68DB6903F00303002B03D07868CC
:10278C0000F04CF905E0786800F03FF9786800F04B
:10279C004EF97B6800221A77BB6803F01003002BFC
:1027AC0020D0FB6803F01003002B1BD07B681B6848
:1027BC006FF010021A617B6808221A777B681B681D
:1027CC00DB6903F44073002B03D0786800F026F922
:1027DC0005E0786800F019F9786800F028F97B6852
:1027EC0000221A77BB6803F00103002B0CD0FB68A6
:1027FC0003F00103002B07D07B681B686FF001020C
:10280C001A617868FEF7B8FCBB6803F08003002BF4
:10281C000CD0FB6803F08003002B07D07B681B688F
:10282C006FF080021A61786800F06FFABB6803F0F1
:10283C004003002B0CD0FB6803F04003002B07D0A7
:10284C007B681B686FF040021A61786800F0F8F83A
:10285C00BB6803F02003002B0CD0FB6803F02003B3
:10286C00002B07D07B681B686FF020021A61786818
:10287C0000F042FA00BF1037BD4680BD80B584B071
:10288C0000AF786039600023FB737B6893F83C30B1
:10289C00012B01D10223B4E07B68012283F83C2098
:1028AC007B68022283F83D207B681B689B68BB60B9
:1028BC00BB6823F07703BB60BB6823F47F43BB602A
:1028CC007B681B68BA689A603B681B68B3F5005F4D
:1028DC003ED0B3F5005F00F28780B3F5805F00F067
:1028EC008680B3F5805F7FD8702B1AD0702B7BD885
:1028FC00602B50D0602B77D8502B3CD0502B73D8FA
:10290C00402B58D0402B6FD8302B64D0302B6BD849
:10291C00202B60D0202B67D8002B5CD0102B5AD0EA
:10292C0062E07B6818683B6899683B685A683B684A
:10293C00DB6800F06AF97B681B689B68BB60BB684E
:10294C0043F07703BB607B681B68BA689A604FE002
:10295C007B6818683B6899683B685A683B68DB6819
:10296C0000F053F97B681B689A687B681B6842F41B
:10297C0080429A603CE07B6818683B6859683B6809
:10298C00DB681A4600F0CAF87B681B6850211846B1
:10299C0000F021F92CE07B6818683B6859683B68AB
:1029AC00DB681A4600F0E8F87B681B686021184663
:1029BC0000F011F91CE07B6818683B6859683B68AB
:1029CC00DB681A4600F0AAF87B681B6840211846A1
:1029DC0000F001F90CE07B681A683B681B6819462B
:1029EC00104600F0F8F803E00123FB7300E000BF91
:1029FC007B68012283F83D207B68002283F83C2011
:102A0C00FB7B18461037BD4680BD80B483B000AF49
:102A1C00786000BF0C37BD4680BC704780B483B073
:102A2C0000AF786000BF0C37BD4680BC704780B4E7
:102A3C0083B000AF786000BF0C37BD4680BC7047D8
:102A4C0080B483B000AF786000BF0C37BD4680BC4B
:102A5C007047000080B485B000AF786039607B6847
:102A6C001B68FB607B682B4A934207D07B68B3F1F1
:102A7C00804F03D07B68284A934208D1FB6823F02F
:102A8C007003FB603B685B68FA681343FB607B6810
:102A9C00204A934207D07B68B3F1804F03D07B6808
:102AAC001D4A934208D1FB6823F44073FB603B68DA
:102ABC00DB68FA681343FB60FB6823F080023B6819
:102ACC005B691343FB607B68FA681A603B689A6821
:102ADC007B68DA623B681A687B689A627B680D4A8D
:102AEC00934203D13B681A697B681A637B680122A5
:102AFC005A617B681B6903F00103002B05D07B68CE
:102B0C001B6923F001027B681A6100BF1437BD46B4
:102B1C0080BC7047002C01400004004080B487B09A
:102B2C0000AFF860B9607A60FB681B6A7B61FB6878
:102B3C001B6A23F00102FB681A62FB689B693B610C
:102B4C003B6923F0F0033B617B681B013A6913433B
:102B5C003B617B6923F00A037B617A69BB68134391
:102B6C007B61FB683A699A61FB687A691A6200BFFB
:102B7C001C37BD4680BC704780B487B000AFF8608E
:102B8C00B9607A60FB681B6A7B61FB681B6A23F087
:102B9C001002FB681A62FB689B693B613B6923F47A
:102BAC0070433B617B681B033A6913433B617B6950
:102BBC0023F0A0037B61BB681B017A6913437B6123
:102BCC00FB683A699A61FB687A691A6200BF1C3724
:102BDC00BD4680BC704780B485B000AF786039606A
:102BEC007B689B68FB60FB6823F07003FB603A68B2
:102BFC00FB68134343F00703FB607B68FA689A6039
:102C0C0000BF1437BD4680BC704780B487B000AF9E
:102C1C00F860B9607A603B60FB689B687B617B699C
:102C2C0023F47F437B613B681A027B681A43BB68C1
:102C3C0013437A6913437B61FB687A699A6000BF1E
:102C4C001C37BD4680BC704780B485B000AF78603F
:102C5C0039607B6893F83C30012B01D1022341E0B1
:102C6C007B68012283F83C207B68022283F83D209C
:102C7C007B681B685B68FB607B681B689B68BB6040
:102C8C00FB6823F07003FB603B681B68FA68134316
:102C9C00FB607B681B68FA685A607B681B68144A87
:102CAC00934209D07B681B68B3F1804F04D07B68DA
:102CBC001B68104A93420CD1BB6823F08003BB60A5
:102CCC003B685B68BA681343BB607B681B68BA6877
:102CDC009A607B68012283F83D207B68002283F890
:102CEC003C20002318461437BD4680BC704700BFFB
:102CFC00002C01400004004080B483B000AF786029
:102D0C0000BF0C37BD4680BC704780B483B000AFA9
:102D1C00786000BF0C37BD4680BC70470346024448
:102D2C00934200D1704703F8011BF9E770B50026F8
:102D3C000C4D0D4C641BA410A64209D100F01AF8DE
:102D4C0000260A4D0A4C641BA410A64205D170BD86
:102D5C0055F8043B98470136EEE755F8043B984785
:102D6C000136F2E7BC2D0008BC2D0008BC2D000874
:102D7C00C02D0008F8B500BFF8BC08BC9E467047D3
:0C2D8C00F8B500BFF8BC08BC9E467047BC
:102D98000000000000000000010203040607080903
:102DA80002030405060708090A0B0C0D0E0F101084
:042DB8000102000014
:042DBC0031010008D9
:042DC0000D010008F9
:102DC40001000000010000000100000001000000FB
:102DD40001000000010000000100000001000000EB
:102DE400010000000100000000127A000A00000047
:082DF4001000000001000000C6
:0400000508001701D7
:00000001FF
