:020000040800F2
:1000000000280020111B000879180008811800083A
:1000100089180008911800089918000800000000CD
:10002000000000000000000000000000A11800080F
:10003000AD18000800000000B9180008C518000835
:10004000591B0008591B0008591B0008591B0008C0
:10005000591B0008591B0008591B0008591B0008B0
:10006000591B0008591B0008591B0008591B0008A0
:10007000591B0008591B0008591B0008591B000890
:10008000591B0008591B0008591B0008591B000880
:10009000591B0008591B0008591B0008591B000870
:1000A000591B0008591B0008591B0008591B000860
:1000B000D1180008591B000800000000591B000857
:1000C000591B00080000000000000000591B000838
:1000D00000000000591B0008591B00080000000028
:1000E000591B0008591B0008591B0008000000009C
:1000F0000000000000000000000000000000000000
:0C01000000000000000000005FF808F1A3
:10010C0010B5054C237833B9044B13B10448AFF345
:10011C0000800123237010BD380000200000000077
:10012C009031000808B5034B1BB103490348AFF3EA
:10013C00008008BD000000003C0000209031000849
:10014C0080B584B000AF464B1B68032B79DD444B64
:10015C001B68062B75DC424B1B68042B09D1022053
:10016C0001F0E0FB032001F0CDFB042001F0CAFB01
:10017C001AE03B4B1B68052B09D1032001F0D2FB85
:10018C00022001F0BFFB042001F0BCFB0CE0344B5F
:10019C001B68062B08D1042001F0C4FB022001F0DF
:1001AC00B1FB032001F0AEFB022001F09BFB0346E8
:1001BC00002B12D008212B4801F0E5FF40212948E3
:1001CC0001F0E1FF284B1B684FF4FA7202FB03F3BA
:1001DC00FB60F968022001F0B5FB032001F082FB03
:1001EC000346002B12D010211E4801F0CCFF8021B9
:1001FC001C4801F0C8FF1D4B1B684FF4FA7202FB40
:10020C0003F3BB60B968032001F09CFB042001F0F0
:10021C0069FB0346002B1ED02021124801F0B3FFCE
:10022C004FF480710F4801F0AEFF114B1B684FF477
:10023C00FA7202FB03F37B607968042001F082FB05
:10024C0009E0022001F05EFB032001F05BFB0420BF
:10025C0001F058FB00BF00BF1037BD4680BD00BF8A
:10026C0054000020000C014000000020040000207D
:10027C000800002080B500AF1A4B05221A601A4BFB
:10028C0003221A60174B1B68184600F03DFC164BF6
:10029C001B68184600F0C8FD144B1B684FF4FA722B
:1002AC0002FB03F31946022001F04CFB104B1B68B8
:1002BC004FF4FA7202FB03F31946032001F042FBE0
:1002CC000C4B1B684FF4FA7202FB03F31946042023
:1002DC0001F038FB00F012F8074B00221A6000BF47
:1002EC0080BD00BF6C0000207000002000000020CA
:1002FC0004000020080000205400002080B500AF4E
:10030C000F4B05221A600F4B03221A60002001F0DC
:10031C0009FB012001F006FB022001F0F3FA032097
:10032C0001F0F0FA042001F0EDFA0021002001F0B8
:10033C0009FB40F6B831012001F004FB00BF80BD81
:10034C006C0000207000002080B500AF044B02222E
:10035C001A604FF4FA61012001F0F4FA00BF80BD7D
:10036C007000002080B500AF064B03221A60064BCC
:10037C0005221A6040F6B831012001F0E3FA00BF03
:10038C0080BD00BF6C0000207000002080B500AF65
:10039C00044B02221A604FF4FA61012001F0D2FAE8
:1003AC0000BF80BD6C00002080B500AF01F01CFBCD
:1003BC00002001F0A7FA012001F0A4FA00BF80BDD3
:1003CC0080B500AF01F010FB002001F09BFA01207A
:1003DC0001F098FA00BF80BD80B500AF01F004FBBE
:1003EC00002001F08FFA012001F08CFA00BF80BDD3
:1003FC0080B500AF01F01EFB002001F073FA03463C
:10040C00002B18D00D4B1B68184600F07DFB0C4BD5
:10041C001B68184600F008FD084B1B68013B074A97
:10042C001360074B1B68013B054A13604FF47A714C
:10043C00002001F087FA00BF80BD00BF6C000020D7
:10044C007000002080B500AF01F01AFB002001F015
:10045C0049FA0346002B18D00D4B1B68184600F0C8
:10046C0053FB0C4B1B68184600F0DEFC084B1B685A
:10047C00013B074A1360074B1B68013B054A13609D
:10048C004FF47A71002001F05DFA00BF80BD00BF0F
:10049C006C0000207000002080B500AF01F002FB62
:1004AC00002001F01FFA0346002B18D00D4B1B68DF
:1004BC00184600F029FB0C4B1B68184600F0B4FCE6
:1004CC00084B1B68013B074A1360074B1B68013B39
:1004DC00054A13604FF47A71002001F033FA00BF23
:1004EC0080BD00BF6C0000207000002080B500AF04
:1004FC0001F0F2FA002001F0F5F90346002B18D0B8
:10050C000D4B1B68184600F0FFFA0C4B1B68184685
:10051C0000F08AFC084B1B68013B074A1360074B31
:10052C001B68013B054A13604FF47A71002001F0FF
:10053C0009FA00BF80BD00BF6C00002070000020D5
:10054C0080B500AF244B1B68244A82FB0312921027
:10055C00DB17D31A184600F0D7FA1F4B1A681F4B3B
:10056C0083FB02139910D317C91A0B469B000B443B
:10057C005B00D11A084600F02FFE194B1B68023B9A
:10058C00184600F051FC012000F0E2F90346002B64
:10059C000BD0114B1B6801330F4A13600E4B1B68B9
:1005AC00632B02DD0C4B01221A60022000F0D0F903
:1005BC000346002B0DD0084B1B680A4A1360094BED
:1005CC001B684FF4FA7202FB03F31946022001F088
:1005DC00B9F900BF80BD00BF0C00002067666666DD
:1005EC00540000200000002080B500AF224B1B6897
:1005FC00224A82FB03129210DB17D31A184600F022
:10060C0083FA1D4B1A681D4B83FB02139910D317E9
:10061C00C91A0B469B000B445B00D11A084600F02C
:10062C00DBFD174B1B68023B184600F0FDFB154B1E
:10063C005B78012B0BD1104B1B6801330E4A1360F6
:10064C000D4B1B68632B02DD0B4B01221A600D4B0B
:10065C009B78012B0DD1084B1B680B4A13600B4B7D
:10066C001B684FF4FA7202FB03F31946032001F0E6
:10067C0069F900BF80BD00BF100000206766666688
:10068C005400002058000020040000200800002026
:10069C0080B500AF224B1B68224A82FB03129210DA
:1006AC00DB17D31A184600F02FFA1D4B1A681D4B96
:1006BC0083FB02139910D317C91A0B469B000B44EA
:1006CC005B00D11A084600F087FD174B1B68023BF4
:1006DC00184600F0A9FB154B5B78012B0BD1104B86
:1006EC001B6801330E4A13600D4B1B68632B02DD34
:1006FC000B4B01221A600D4B9B78012B0DD1084B33
:10070C001B680B4A13600A4B1B684FF4FA7202FB0E
:10071C0003F31946042001F015F900BF80BD00BF9A
:10072C001400002067666666540000205800002004
:10073C000800002080B500AF544B1B68062B00F25C
:10074C00938001A252F823F071070008A307000858
:10075C00D1070008FF0700082D080008450800080D
:10076C005D080008FFF744FE012001F0BBF80346CA
:10077C00002B04D0FFF7E8FD444B01221A60002047
:10078C0000F0E6F80346002B70D0FFF70DFE3F4B50
:10079C0004221A606AE0FFF755FE012001F0A2F86E
:1007AC000346002B04D0FFF7DDFD384B02221A6004
:1007BC00374B1B78012B5BD1FFF7F6FD334B042233
:1007CC001A6055E0FFF768FE012001F08BF8034634
:1007DC00002B04D0FFF7DAFD2C4B03221A602C4BB4
:1007EC001B78012B46D1FFF7DFFD284B04221A6042
:1007FC0040E0FFF77BFE012001F074F80346002B6C
:10080C0004D0FFF77BFD214B00221A60204B1B7894
:10081C00012B31D1FFF7C8FD1C4B04221A602BE0D1
:10082C00FFF78EFE1A4B1B78012B27D1FFF7C8FD63
:10083C00164B05221A6021E0FFF7D6FE144B1B78ED
:10084C00012B1DD1FFF7C8FD104B06221A6017E0D3
:10085C00FFF71EFF0E4B1B78012B13D1FFF74EFD3C
:10086C000A4B00221A600DE000BF0CE000BF0AE04A
:10087C0000BF08E000BF06E000BF04E000BF02E0DC
:10088C0000BF00E000BF00BF80BD00BF54000020CF
:10089C005800002080B582B000AF00237B604CE094
:1008AC002A4A7B6813441B78022B30D0022B41DC84
:1008BC00002B02D0012B0ED03CE07B68DBB218463B
:1008CC0000F046F80346002B2FD0204A7B681344D7
:1008DC0001221A7029E07B68DBB2184600F038F868
:1008EC000346002B05D1194A7B68134400221A7069
:1008FC001DE07B68DBB2184600F048F80346002B7D
:10090C0015D0124A7B68134402221A700FE07B68E0
:10091C00DBB2184600F01CF80346002B09D10B4A39
:10092C007B68134400221A7003E000BF02E000BF92
:10093C0000E000BF7B6801337B607B68022BAFDD7E
:10094C0000BF00BF0837BD4680BD00BF5800002067
:10095C0080B483B000AF0346FB71FB79022B01D945
:10096C0000230BE0FB79084AD35C002B05D0FB7904
:10097C00054A0021D154012300E0002318460C370E
:10098C00BD4680BC704700BF5C00002080B483B0C3
:10099C0000AF0346FB71FB79022B01D9FF230BE05F
:1009AC00FB79084AD35C002B05D0FB79054A002162
:1009BC00D154012300E0002318460C37BD4680BCFF
:1009CC00704700BF6000002080B582B000AF0023EC
:1009DC007B6082E0454A7B6813441978444A7B6803
:1009EC0013440A461A70434A7B68134419783F4AE9
:1009FC007B6813440A461A707B68002B0BD10121CB
:100A0C003D4801F091FB034619463A4A7B68134472
:100A1C000A461A701CE07B68012B0BD10221364868
:100A2C0001F082FB03461946324A7B6813440A469E
:100A3C001A700DE07B68022B0AD104212E4801F0BC
:100A4C0073FB034619462B4A7B6813440A461A70FB
:100A5C00284A7B6813441A7824497B680B441B781A
:100A6C009A4237D1214A7B6813441A7820497B6813
:100A7C000B441B789A422DD11E4A7B6813441A787A
:100A8C001E497B680B441B789A4219D0194A7B6823
:100A9C0013441978194A7B6813440A461A70174A8A
:100AAC007B6813441B78002B14D1154A7B68642196
:100ABC0022F81310134A7B68134401221A7009E0C0
:100ACC000F4A7B6832F81330013B99B20C4A7B68B1
:100ADC0022F813107B6801337B607B68022B7FF755
:100AEC0079AF00BF00BF0837BD4680BD2000002095
:100AFC00240000201C000020000C014018000020E5
:100B0C00640000205C00002080B582B000AF7860EB
:100B1C007B68002B23D100220121C24801F01BFB72
:100B2C0000220221BF4801F016FB00220421BD481F
:100B3C0001F011FB00220821BA4801F00CFB002245
:100B4C001021B84801F007FB00222021B54801F024
:100B5C0002FB01224021B34801F0FDFA5DE17B6804
:100B6C00012B23D101220121AE4801F0F4FA00221D
:100B7C000221AC4801F0EFFA00220421A94801F04F
:100B8C00EAFA01220821A74801F0E5FA0122102116
:100B9C00A44801F0E0FA01222021A24801F0DBFA7E
:100BAC00012240219F4801F0D6FA36E17B68022BE6
:100BBC0023D1002201219B4801F0CDFA0022022111
:100BCC00984801F0C8FA01220421964801F0C3FAB2
:100BDC0000220821934801F0BEFA0022102191480E
:100BEC0001F0B9FA012220218E4801F0B4FA00225A
:100BFC0040218C4801F0AFFA0FE17B68032B23D125
:100C0C0000220121874801F0A6FA00220221854822
:100C1C0001F0A1FA00220421824801F09CFA002282
:100C2C000821804801F097FA012210217D4801F03B
:100C3C0092FA012220217B4801F08DFA00224021FA
:100C4C00784801F088FAE8E07B68042B23D1012274
:100C5C000121744801F07FFA00220221714801F051
:100C6C007AFA002204216F4801F075FA012208215A
:100C7C006C4801F070FA012210216A4801F06BFAFD
:100C8C0000222021674801F066FA002240216548C5
:100C9C0001F061FAC1E07B68052B23D10022012110
:100CAC00604801F058FA012202215E4801F053FA23
:100CBC00002204215B4801F04EFA00220821594819
:100CCC0001F049FA01221021564801F044FA0022A1
:100CDC002021544801F03FFA00224021514801F0F4
:100CEC003AFA9AE07B68062B23D1002201214D4869
:100CFC0001F031FA012202214A4801F02CFA0022BB
:100D0C000421484801F027FA00220821454801F047
:100D1C0022FA00221021434801F01DFA0022202162
:100D2C00404801F018FA002240213E4801F013FA25
:100D3C0073E07B68072B23D100220121394801F095
:100D4C000AFA00220221374801F005FA0022042198
:100D5C00344801F000FA01220821324801F0FBF975
:100D6C00012210212F4801F0F6F9012220212D48F3
:100D7C0001F0F1F9012240212A4801F0ECF94CE094
:100D8C007B68082B23D100220121264801F0E3F9CE
:100D9C0000220221234801F0DEF90022042121481F
:100DAC0001F0D9F9002208211E4801F0D4F90022E3
:100DBC0010211C4801F0CFF900222021194801F024
:100DCC00CAF900224021174801F0C5F925E07B68DB
:100DDC00092B22D100220121124801F0BCF900227A
:100DEC000221104801F0B7F9002204210D4801F04E
:100DFC00B2F9002208210B4801F0ADF901221021B3
:100E0C00084801F0A8F900222021064801F0A3F9B6
:100E1C0000224021034801F09EF900BF0837BD466F
:100E2C0080BD00BF0008014080B582B000AF786083
:100E3C007B68002B2AD100224FF48071CB4801F043
:100E4C008AF900224FF40071C84801F084F900229D
:100E5C004FF48061C54801F07EF900224FF4006127
:100E6C00C24801F078F900224FF48051BF4801F0DC
:100E7C0072F900224FF40051BC4801F06CF90122C8
:100E8C004FF48041B94801F066F99EE17B68012B73
:100E9C002AD101224FF48071B44801F05CF9002290
:100EAC004FF40071B14801F056F900224FF4806103
:100EBC00AE4801F050F901224FF40061AB4801F04B
:100ECC004AF901224FF48051A84801F044F901225B
:100EDC004FF40051A54801F03EF901224FF4804136
:100EEC00A24801F038F970E17B68022B2AD100226C
:100EFC004FF480719D4801F02EF900224FF40071DF
:100F0C009A4801F028F901224FF48061974801F0CA
:100F1C0022F900224FF40061944801F01CF90022E0
:100F2C004FF48051914801F016F901224FF4005111
:100F3C008E4801F010F900224FF480418B4801F0EB
:100F4C000AF942E17B68032B2AD100224FF480710D
:100F5C00864801F000F900224FF40071834801F03B
:100F6C00FAF800224FF48061804801F0F4F8002276
:100F7C004FF400617D4801F0EEF801224FF48051EE
:100F8C007A4801F0E8F801224FF40051774801F05B
:100F9C00E2F800224FF48041744801F0DCF814E1CF
:100FAC007B68042B2AD101224FF480716F4801F029
:100FBC00D2F800224FF400716C4801F0CCF80022FA
:100FCC004FF48061694801F0C6F801224FF40061CA
:100FDC00664801F0C0F801224FF48051634801F0DB
:100FEC00BAF800224FF40051604801F0B4F8002226
:100FFC004FF480415D4801F0AEF8E6E07B68052BCC
:10100C002AD100224FF48071584801F0A4F8012233
:10101C004FF40071554801F09EF800224FF48061A6
:10102C00524801F098F800224FF400614F4801F04B
:10103C0092F801224FF480514C4801F08CF80022B8
:10104C004FF40051494801F086F800224FF48041DA
:10105C00464801F080F8B8E07B68062B2AD10022C4
:10106C004FF48071414801F076F801224FF4007181
:10107C003E4801F070F800224FF480613B4801F0CB
:10108C006AF800224FF40061384801F064F800223D
:10109C004FF48051354801F05EF800224FF40051B6
:1010AC00324801F058F800224FF480412F4801F0EB
:1010BC0052F88AE07B68072B2AD100224FF480710A
:1010CC002A4801F048F800224FF40071274801F03B
:1010DC0042F800224FF48061244801F03CF80122D0
:1010EC004FF40061214801F036F801224FF4805191
:1010FC001E4801F030F801224FF400511B4801F05A
:10110C002AF801224FF48041184801F024F85CE0E1
:10111C007B68082B2CD100224FF48071134801F00E
:10112C001AF800224FF40071104801F014F8002254
:10113C004FF480610D4801F00EF800224FF400616D
:10114C000A4801F008F800224FF48051074801F0DA
:10115C0002F800224FF40051044800F0FCFF00227A
:10116C004FF48041014800F0F6FF2EE000080140EA
:10117C007B68092B29D100224FF48071154800F0AF
:10118C00EAFF00224FF40071124800F0E4FF002245
:10119C004FF480610F4800F0DEFF00224FF4006135
:1011AC000C4800F0D8FF01224FF48051094800F0A0
:1011BC00D2FF00224FF40051064800F0CCFF002271
:1011CC004FF48041034800F0C6FF00BF0837BD460E
:1011DC0080BD00BF0008014080B582B000AF7860D0
:1011EC007B68002B2AD100224FF40071CB4800F011
:1011FC00B2FF00224FF48061C84800F0ACFF00221F
:10120C004FF40061C54800F0A6FF00224FF4805156
:10121C00C24800F0A0FF00224FF40051BF4800F07C
:10122C009AFF00224FF48041BC4800F094FF012249
:10123C004FF40041B94800F08EFF9EE17B68012B12
:10124C002AD101224FF40071B44800F084FF00222F
:10125C004FF48061B14800F07EFF00224FF4006132
:10126C00AE4800F078FF01224FF48051AB4800F0FB
:10127C0072FF01224FF40051A84800F06CFF0122CC
:10128C004FF48041A54800F066FF01224FF4004165
:10129C00A24800F060FF70E17B68022B2AD100228B
:1012AC004FF400719D4800F056FF00224FF480610E
:1012BC009A4800F050FF01224FF40061974800F06B
:1012CC004AFF00224FF48051944800F044FF002262
:1012DC004FF40051914800F03EFF01224FF4804141
:1012EC008E4800F038FF00224FF400418B4800F08C
:1012FC0032FF42E17B68032B2AD100224FF40071AC
:10130C00864800F028FF00224FF48061834800F0EB
:10131C0022FF00224FF40061804800F01CFF0022E5
:10132C004FF480517D4800F016FF01224FF400511C
:10133C007A4800F010FF01224FF48041774800F00A
:10134C000AFF00224FF40041744800F004FF14E13E
:10135C007B68042B2AD101224FF400716F4800F0F6
:10136C00FAFE00224FF480616C4800F0F4FE00227B
:10137C004FF40061694800F0EEFE01224FF48051F9
:10138C00664800F0E8FE01224FF40051634800F07B
:10139C00E2FE00224FF48041604800F0DCFE0022A7
:1013AC004FF400415D4800F0D6FEE6E07B68052B6B
:1013BC002AD100224FF40071584800F0CCFE0122D3
:1013CC004FF48061554800F0C6FE00224FF40061D6
:1013DC00524800F0C0FE00224FF480514F4800F0FC
:1013EC00BAFE01224FF400514C4800F0B4FE00222A
:1013FC004FF48041494800F0AEFE00224FF400410A
:10140C00464800F0A8FEB8E07B68062B2AD10022E3
:10141C004FF40071414800F09EFE01224FF48061B0
:10142C003E4800F098FE00224FF400613B4800F06B
:10143C0092FE00224FF48051384800F08CFE0022BE
:10144C004FF40051354800F086FE00224FF48041E5
:10145C00324800F080FE00224FF400412F4800F08B
:10146C007AFE8AE07B68072B2AD100224FF40071A8
:10147C002A4800F070FE00224FF48061274800F0EB
:10148C006AFE00224FF40061244800F064FE012241
:10149C004FF48051214800F05EFE01224FF40051C0
:1014AC001E4800F058FE01224FF480411B4800F00A
:1014BC0052FE01224FF40041184800F04CFE5CE053
:1014CC007B68082B2CD100224FF40071134800F0DC
:1014DC0042FE00224FF48061104800F03CFE0022D6
:1014EC004FF400610D4800F036FE00224FF480519D
:1014FC000A4800F030FE00224FF40051074800F07B
:10150C002AFE00224FF48041044800F024FE002201
:10151C004FF40041014800F01EFE2EE0000C01408B
:10152C007B68092B29D100224FF40071154800F07B
:10153C0012FE00224FF48061124800F00CFE0022D3
:10154C004FF400610F4800F006FE00224FF480516A
:10155C000C4800F000FE01224FF40051094800F045
:10156C00FAFD00224FF48041064800F0F4FD002201
:10157C004FF40041034800F0EEFD00BF0837BD46B4
:10158C0080BD00BF000C014080B582B000AF786018
:10159C007B681B68B3F1804F03D1FFF715FA00F09D
:1015AC00EFF900BF0837BD4680BD000080B500AF25
:1015BC0000F0CEFA00F014F800F09AF800F04CF8B5
:1015CC00FEF758FE054801F025FAFFF763F9FFF71F
:1015DC00B1F8FEF7B5FD00BFF7E700BF74000020BF
:1015EC0080B590B000AF07F11803282200211846EF
:1015FC0001F09CFD3B1D00221A605A609A60DA6073
:10160C001A610223BB610123BB621023FB6200231E
:10161C007B6307F11803184600F0CEFD0346002B40
:10162C0001D000F0C7F80F237B600023BB600023C0
:10163C00FB6000233B6100237B613B1D00211846AE
:10164C0001F03CF80346002B01D000F0B3F800BFCA
:10165C004037BD4680BD000080B586B000AF07F1B5
:10166C00080300221A605A609A60DA603B46002236
:10167C001A605A601D4B4FF080421A601B4B41F6AA
:10168C003F725A60194B00229A60184B0922DA609B
:10169C00164B00221A61154B00229A61134801F077
:1016AC0069F90346002B01D000F084F84FF4805305
:1016BC00BB6007F1080319460C4801F0E7FA034632
:1016CC00002B01D000F076F800233B6000237B60F8
:1016DC003B461946054801F0BFFC0346002B01D0E0
:1016EC0000F068F800BF1837BD4680BD74000020BC
:1016FC0080B586B000AF07F1080300221A605A606B
:10170C009A60DA60284B9B69274A43F00403936183
:10171C00254B9B6903F004037B607B68224B9B6920
:10172C00214A43F0080393611F4B9B6903F00803A4
:10173C003B603B68002247F6FF711C4800F00BFD34
:10174C0000224FF6F8711A4800F005FD47F6FF73BA
:10175C00BB600123FB6000233B6102237B6107F12B
:10176C0008031946114800F063FB0723BB600023F4
:10177C00FB6000233B6107F1080319460C4800F09D
:10178C0057FB4FF6F873BB600123FB6000233B61F2
:10179C0002237B6107F108031946054800F048FB5A
:1017AC0000BF1837BD4680BD001002400008014044
:1017BC00000C014080B400AF72B600BF00BFFDE763
:1017CC0080B485B000AF154B9B69144A43F00103FC
:1017DC009361124B9B6903F00103BB60BB680F4B19
:1017EC00DB690E4A43F08053D3610C4BDB6903F089
:1017FC0080537B607B680A4B5B68FB60FB6823F063
:10180C00E063FB60FB6843F08063FB60044AFB68A9
:10181C00536000BF1437BD4680BC704700100240B7
:10182C000000014080B584B000AF78607B681B6815
:10183C00B3F1804F13D10C4BDB690B4A43F001031E
:10184C00D361094BDB6903F00103FB60FB680022E9
:10185C0000211C2000F0B5FA1C2000F0CEFA00BFCD
:10186C001037BD4680BD00BF0010024080B400AFF1
:10187C0000BFFDE780B400AF00BFFDE780B400AF50
:10188C0000BFFDE780B400AF00BFFDE780B400AF40
:10189C0000BFFDE780B400AF00BFBD4680BC704701
:1018AC0080B400AF00BFBD4680BC704780B400AFB1
:1018BC0000BFBD4680BC704780B500AF00F08EF90C
:1018CC0000BF80BD80B500AF024801F0EFF800BF4B
:1018DC0080BD00BF7400002080B400AF00BFBD46C7
:1018EC0080BC704780B483B000AF7860044A7B68DA
:1018FC0052F8233018460C37BD4680BC704700BFE9
:10190C00D000002080B483B000AF7860044A7B68BC
:10191C00012142F8231000BF0C37BD4680BC704734
:10192C00BC00002080B483B000AF7860044A7B68B0
:10193C00002142F8231000BF0C37BD4680BC704715
:10194C00BC00002080B483B000AF78603960094BD4
:10195C001B683A6892FBF3F207497B6841F8232035
:10196C00064A7B68002142F8231000BF0C37BD46A5
:10197C0080BC70472C000020E4000020D000002028
:10198C0080B483B000AF00237B601EE0134A7B68F9
:10199C0052F82330002B14D1114A7B6852F82330B3
:1019AC005A1E0F497B6841F823200D4A7B6852F878
:1019BC002330002B06DC0B4A7B68012142F82310F4
:1019CC0000E000BF7B6801337B607B68042BDDDDAE
:1019DC0000BF00BF0C37BD4680BC7047BC00002068
:1019EC00E4000020D000002080B500AF00220821C8
:1019FC000F4800F0B0FB002210210D4800F0ABFBAB
:101A0C00002220210A4800F0A6FB002240210848B1
:101A1C0000F0A1FB00228021054800F09CFB002275
:101A2C004FF48071024800F096FB00BF80BD00BFF0
:101A3C00000C014080B500AF012208210F4800F0D6
:101A4C008AFB01224FF480710C4800F084FB0022C9
:101A5C0020210A4800F07FFB00221021074800F0EB
:101A6C007AFB00224021054800F075FB0022802102
:101A7C00024800F070FB00BF80BD00BF000C0140AD
:101A8C0080B500AF00224FF48071054800F063FB75
:101A9C0001228021024800F05EFB00BF80BD00BF28
:101AAC00000C014080B500AF00220821094800F06D
:101ABC0052FB00228021074800F04DFB01224021FF
:101ACC00044800F048FB01222021024800F043FBAF
:101ADC0000BF80BD000C014080B500AF002220216A
:101AEC00074800F038FB01221021054800F033FBB9
:101AFC0001224021024800F02EFB00BF80BD00BF38
:101B0C00000C0140FFF7E8FE0B480C490C4A00237F
:101B1C0002E0D458C4500433C4188C42F9D3094A97
:101B2C00094C002301E013600432A242FBD301F004
:101B3C0005FBFFF73BFD704700000020380000203C
:101B4C00D431000838000020FC000020FEE7000023
:101B5C0080B500AF084B1B68074A43F010031360B5
:101B6C00032000F023F90F2000F008F8FFF728FEFF
:101B7C000023184680BD00BF0020024080B582B013
:101B8C0000AF7860124B1A68124B1B7819464FF451
:101B9C007A73B3FBF1F3B2FBF3F3184600F03BF9A5
:101BAC000346002B01D001230EE07B680F2B0AD8D3
:101BBC00002279684FF0FF3000F003F9064A7B6889
:101BCC001360002300E0012318460837BD4680BD92
:101BDC0028000020340000203000002080B400AF2A
:101BEC00054B1B781A46054B1B681344034A1360BC
:101BFC0000BFBD4680BC704734000020F8000020B8
:101C0C0080B400AF024B1B681846BD4680BC7047C1
:101C1C00F800002080B485B000AF78607B6803F0DA
:101C2C000703FB600C4BDB68BB60BA684FF6FF0325
:101C3C001340BB60FB681A02BB68134343F0BF63DD
:101C4C0043F40033BB60044ABB68D36000BF143755
:101C5C00BD4680BC704700BF00ED00E080B400AF13
:101C6C00044BDB681B0A03F007031846BD4680BC17
:101C7C00704700BF00ED00E080B483B000AF0346B6
:101C8C00FB7197F90730002B0BDBFB7903F01F027C
:101C9C00064997F907305B09012000FA02F241F876
:101CAC00232000BF0C37BD4680BC704700E100E02C
:101CBC0080B483B000AF03463960FB7197F90730ED
:101CCC00002B0ADB3B68DAB20C4997F9073012019A
:101CDC00D2B20B4483F800230AE03B68DAB208491D
:101CEC00FB7903F00F03043B1201D2B20B441A76BA
:101CFC0000BF0C37BD4680BC704700BF00E100E060
:101D0C0000ED00E080B489B000AFF860B9607A6093
:101D1C00FB6803F00703FB61FB69C3F10703042BAA
:101D2C0028BF0423BB61FB690433062B02D9FB6972
:101D3C00033B00E000237B614FF0FF32BB6902FAEA
:101D4C0003F3DA43BB681A407B699A404FF0FF31CA
:101D5C007B6901FA03F3D9437B680B4013431846A4
:101D6C002437BD4680BC704780B582B000AF786028
:101D7C007B68013BB3F1807F01D301230FE00A4A5A
:101D8C007B68013B53600F214FF0FF30FFF790FF52
:101D9C00054B00229A60044B07221A600023184658
:101DAC000837BD4680BD00BF10E000E080B582B0B2
:101DBC0000AF78607868FFF72DFF00BF0837BD468D
:101DCC0080BD80B586B000AF0346B9607A60FB7306
:101DDC0000237B61FFF742FF78617A68B968786904
:101DEC00FFF790FF024697F90F3011461846FFF7A0
:101DFC005FFF00BF1837BD4680BD80B582B000AF15
:101E0C000346FB7197F907301846FFF735FF00BF03
:101E1C000837BD4680BD80B582B000AF7860786869
:101E2C00FFF7A2FF034618460837BD4680BD0000E9
:101E3C0080B48BB000AF7860396000237B620023E4
:101E4C003B6261E101227B6A02FA03F3FB613B68AE
:101E5C001B68FA691340BB61BA69FB699A4240F08E
:101E6C0050813B685B68974A93425ED0954A934297
:101E7C0075D8954A934258D0934A93426FD8934A57
:101E8C00934252D0914A934269D8914A93424CD092
:101E9C008F4A934263D88F4A934246D08D4A9342DD
:101EAC005DD8122B2AD8122B59D801A252F823F044
:101EBC00371F0008111F0008231F0008651F0008AA
:101ECC006B1F00086B1F00086B1F00086B1F0008BE
:101EDC006B1F00086B1F00086B1F00086B1F0008AE
:101EEC006B1F00086B1F00086B1F00086B1F00089E
:101EFC006B1F0008191F00082D1F0008764A93421B
:101F0C0013D02CE03B68DB683B6229E03B68DB6864
:101F1C0004333B6224E03B68DB6808333B621FE020
:101F2C003B68DB680C333B621AE03B689B68002B18
:101F3C0002D104233B6213E03B689B68012B05D163
:101F4C0008233B627B68FA691A6109E008233B624B
:101F5C007B68FA695A6103E000233B6200E000BF32
:101F6C00BB69FF2B01D87B6801E07B6804337B6184
:101F7C00BB69FF2B02D87B6A9B0002E07B6A083BA3
:101F8C009B003B617B691A680F213B6901FA03F3E3
:101F9C00DB431A40396A3B6901FA03F31A437B6944
:101FAC001A603B685B6803F08053002B00F0A9803B
:101FBC004A4B9B69494A43F001039361474B9B6928
:101FCC0003F00103BB60BB68454A7B6A9B08023384
:101FDC0052F82330FB607B6A03F003039B000F2253
:101FEC0002FA03F3DB43FA681340FB607B683D4A5B
:101FFC0093420DD07B683C4A934207D07B683B4AA6
:10200C00934201D1022304E0032302E0012300E008
:10201C0000237A6A02F0030292009340FA68134399
:10202C00FB602F497B6A9B080233FA6841F8232036
:10203C003B685B6803F48013002B06D02C4B9A682A
:10204C002B49BB6913438B6006E0294B9A68BB692B
:10205C00DB43274913408B603B685B6803F4001338
:10206C00002B06D0224BDA682149BB691343CB60A5
:10207C0006E01F4BDA68BB69DB431D491340CB609C
:10208C003B685B6803F40033002B06D0184B5A688E
:10209C001749BB6913434B6006E0154B5A68BB6983
:1020AC00DB43134913404B603B685B6803F480339C
:1020BC00002B1FD00E4B1A680D49BB6913430B60E4
:1020CC001FE000BF00003210000031100000221091
:1020DC00000021100000121000001110001002402E
:1020EC000000014000080140000C014000100140BC
:1020FC00000401400B4B1A68BB69DB4309491340D0
:10210C000B607B6A01337B623B681A687B6A22FA3C
:10211C0003F3002B7FF496AE00BF00BF2C37BD46F7
:10212C0080BC70470004014080B485B000AF78607B
:10213C000B467B807B689A687B881340002B02D00F
:10214C000123FB7301E00023FB73FB7B1846143760
:10215C00BD4680BC704780B483B000AF78600B463E
:10216C007B8013467B707B78002B03D07A887B684E
:10217C001A6103E07B881A047B681A6100BF0C3774
:10218C00BD4680BC704780B485B000AF78600B460C
:10219C007B807B68DB68FB607A88FB6813401A04E1
:1021AC00FB68D9437B880B401A437B681A6100BFDC
:1021BC001437BD4680BC704780B586B000AF7860E0
:1021CC007B68002B01D1012372E27B681B6803F052
:1021DC000103002B00F08780924B5B6803F00C032B
:1021EC00042B0CD08F4B5B6803F00C03082B12D123
:1021FC008C4B5B6803F48033B3F5803F0BD1894B78
:10220C001B6803F40033002B6CD07B685B68002BDD
:10221C0068D101234CE27B685B68B3F5803F06D143
:10222C00804B1B687F4A43F4803313602EE07B683D
:10223C005B68002B0CD17B4B1B687A4A23F48033F0
:10224C001360784B1B68774A23F4802313601DE0DE
:10225C007B685B68B3F5A02F0CD1724B1B68714A7D
:10226C0043F4802313606F4B1B686E4A43F4803336
:10227C0013600BE06B4B1B686A4A23F480331360CA
:10228C00684B1B68674A23F4802313607B685B6888
:10229C00002B13D0FFF7B4FC386108E0FFF7B0FC5B
:1022AC0002463B69D31A642B01D9032300E25D4B30
:1022BC001B6803F40033002BF0D014E0FFF7A0FCF4
:1022CC00386108E0FFF79CFC02463B69D31A642B8B
:1022DC0001D90323ECE1534B1B6803F40033002BAF
:1022EC00F0D100E000BF7B681B6803F00203002BF9
:1022FC0063D04C4B5B6803F00C03002B0BD0494BA9
:10230C005B6803F00C03082B1CD1464B5B6803F491
:10231C008033002B16D1434B1B6803F00203002BB8
:10232C0005D07B681B69012B01D00123C0E13D4B1B
:10233C001B6823F0F8027B685B69DB0039491343A7
:10234C000B603AE07B681B69002B20D0364B0122D6
:10235C001A60FFF755FC386108E0FFF751FC0246A4
:10236C003B69D31A022B01D90323A1E12D4B1B6826
:10237C0003F00203002BF0D02A4B1B6823F0F80269
:10238C007B685B69DB00274913430B6015E0264B28
:10239C0000221A60FFF734FC386108E0FFF730FCCC
:1023AC0002463B69D31A022B01D9032380E11D4B52
:1023BC001B6803F00203002BF0D17B681B6803F051
:1023CC000803002B3AD07B689B69002B19D0174B64
:1023DC0001221A60FFF714FC386108E0FFF710FCCB
:1023EC0002463B69D31A022B01D9032360E10D4B42
:1023FC005B6A03F00203002BF0D0012000F09CFA82
:10240C001CE00A4B00221A60FFF7FAFB38610FE060
:10241C00FFF7F6FB02463B69D31A022B08D90323BC
:10242C0046E100BF001002400000424280044242DC
:10243C00924B5B6A03F00203002BE9D17B681B68AB
:10244C0003F00403002B00F0A6800023FB758B4BDC
:10245C00DB6903F08053002B0DD1884BDB69874A75
:10246C0043F08053D361854BDB6903F08053BB6031
:10247C00BB680123FB75824B1B6803F48073002B34
:10248C0018D17F4B1B687E4A43F480731360FFF7AF
:10249C00B7FB386108E0FFF7B3FB02463B69D31A80
:1024AC00642B01D9032303E1754B1B6803F4807380
:1024BC00002BF0D07B68DB68012B06D16F4B1B6ABD
:1024CC006E4A43F0010313622DE07B68DB68002B3E
:1024DC000CD16A4B1B6A694A23F001031362674BE8
:1024EC001B6A664A23F0040313621CE07B68DB68FA
:1024FC00052B0CD1614B1B6A604A43F00403136239
:10250C005E4B1B6A5D4A43F0010313620BE05B4BAD
:10251C001B6A5A4A23F001031362584B1B6A574A31
:10252C0023F0040313627B68DB68002B15D0FFF7E4
:10253C0067FB38610AE0FFF763FB02463B69D31A7D
:10254C0041F28832934201D90323B1E04B4B1B6A11
:10255C0003F00203002BEED014E0FFF751FB3861BF
:10256C000AE0FFF74DFB02463B69D31A41F2883271
:10257C00934201D903239BE0404B1B6A03F00203F7
:10258C00002BEED1FB7D012B05D13C4BDB693B4A8B
:10259C0023F08053D3617B68DB69002B00F08780CC
:1025AC00364B5B6803F00C03082B61D07B68DB694E
:1025BC00022B46D1334B00221A60FFF721FB386106
:1025CC0008E0FFF71DFB02463B69D31A022B01D929
:1025DC0003236DE0294B1B6803F00073002BF0D133
:1025EC007B681B6AB3F5803F08D1244B5B6823F4EE
:1025FC0000327B689B68214913434B601F4B5B681F
:10260C0023F474127B68196A7B685B6A0B431B4961
:10261C0013434B601B4B01221A60FFF7F1FA386130
:10262C0008E0FFF7EDFA02463B69D31A022B01D9F9
:10263C0003233DE0114B1B6803F00073002BF0D01B
:10264C0035E0104B00221A60FFF7DAFA386108E027
:10265C00FFF7D6FA02463B69D31A022B01D90323A2
:10266C0026E0064B1B6803F00073002BF0D11EE034
:10267C007B68DB69012B07D1012319E000100240B4
:10268C0000700040600042420B4B5B68FB60FB68D3
:10269C0003F480327B681B6A9A4206D1FB6803F410
:1026AC0070127B685B6A9A4201D0012300E0002320
:1026BC0018461837BD4680BD0010024080B584B066
:1026CC0000AF786039607B68002B01D10123D0E02A
:1026DC006A4B1B6803F007033A689A4210D9674BA0
:1026EC001B6823F0070265493B6813430B60634B7F
:1026FC001B6803F007033A689A4201D00123B8E043
:10270C007B681B6803F00203002B20D07B681B68DE
:10271C0003F00403002B05D0594B5B68584A43F473
:10272C00E06353607B681B6803F00803002B05D043
:10273C00534B5B68524A43F460535360504B5B6895
:10274C0023F0F0027B689B684D4913434B607B6818
:10275C001B6803F00103002B40D07B685B68012BE6
:10276C0007D1474B1B6803F40033002B15D1012311
:10277C007FE07B685B68022B07D1414B1B6803F041
:10278C000073002B09D1012373E03D4B1B6803F050
:10279C000203002B01D101236BE0394B5B6823F062
:1027AC0003027B685B68364913434B60FFF728FADA
:1027BC00F8600AE0FFF724FA0246FB68D31A41F2EC
:1027CC008832934201D9032353E02D4B5B6803F00D
:1027DC000C027B685B689B009A42EBD1274B1B6811
:1027EC0003F007033A689A4210D2244B1B6823F07B
:1027FC00070222493B6813430B60204B1B6803F014
:10280C0007033A689A4201D0012332E07B681B68C7
:10281C0003F00403002B08D0194B5B6823F4E0622F
:10282C007B68DB68164913434B607B681B6803F0BD
:10283C000803002B09D0124B5B6823F460527B68B1
:10284C001B69DB000E4913434B6000F021F8024674
:10285C000B4B5B681B0903F00F030A49CB5C22FA94
:10286C0003F3094A1360094B1B681846FFF786F9F6
:10287C00002318461037BD4680BD00BF0020024023
:10288C0000100240A8310008280000203000002071
:10289C0080B487B000AF0023FB600023BB60002333
:1028AC007B6100237B6000233B611E4B5B68FB60FC
:1028BC00FB6803F00C03042B02D0082B03D027E099
:1028CC00194B3B6127E0FB689B0C03F00F03174A85
:1028DC00D35C7B60FB6803F48033002B10D0114B6E
:1028EC005B685B0C03F00103114AD35CBB607B6833
:1028FC000D4A03FB02F2BB68B2FBF3F37B6104E00D
:10290C007B680C4A02FB03F37B617B693B6102E051
:10291C00054B3B6100BF3B6918461C37BD4680BC6C
:10292C00704700BF0010024000127A00B831000856
:10293C00C831000800093D0080B485B000AF786054
:10294C000A4B1B680A4AA2FB03235B0A7A6802FB48
:10295C0003F3FB6000BFFB685A1EFA60002BF9D131
:10296C0000BF00BF1437BD4680BC70472800002054
:10297C00D34D621080B582B000AF78607B68002BBD
:10298C0001D1012341E07B6893F83D30DBB2002B91
:10299C0006D17B68002283F83C207868FEF742FF62
:1029AC007B68022283F83D207B681A687B680433BD
:1029BC001946104600F056FA7B68012283F846202F
:1029CC007B68012283F83E207B68012283F83F203C
:1029DC007B68012283F840207B68012283F8412028
:1029EC007B68012283F842207B68012283F8432014
:1029FC007B68012283F844207B68012283F8452000
:102A0C007B68012283F83D20002318460837BD4619
:102A1C0080BD000080B485B000AF78607B6893F80F
:102A2C003D30DBB2012B01D0012335E07B68022263
:102A3C0083F83D207B681B68DA687B681B6842F072
:102A4C000102DA607B681B68164A934209D07B68E6
:102A5C001B68B3F1804F04D07B681B68124A934209
:102A6C0011D17B681B689B6803F00703FB60FB6854
:102A7C00062B10D07B681B681A687B681B6842F0B9
:102A8C0001021A6007E07B681B681A687B681B6888
:102A9C0042F001021A60002318461437BD4680BC70
:102AAC00704700BF002C01400004004080B584B08A
:102ABC0000AF78607B681B68DB68FB607B681B6819
:102ACC001B69BB60BB6803F00203002B20D0FB68C2
:102ADC0003F00203002B1BD07B681B686FF0020213
:102AEC001A617B6801221A777B681B689B6903F06B
:102AFC000303002B03D0786800F098F905E07868A0
:102B0C0000F08BF9786800F09AF97B6800221A774C
:102B1C00BB6803F00403002B20D0FB6803F0040314
:102B2C00002B1BD07B681B686FF004021A617B685A
:102B3C0002221A777B681B689B6903F44073002B95
:102B4C0003D0786800F072F905E0786800F065F958
:102B5C00786800F074F97B6800221A77BB6803F080
:102B6C000803002B20D0FB6803F00803002B1BD0BC
:102B7C007B681B686FF008021A617B6804221A7765
:102B8C007B681B68DB6903F00303002B03D07868B8
:102B9C0000F04CF905E0786800F03FF9786800F037
:102BAC004EF97B6800221A77BB6803F01003002BE8
:102BBC0020D0FB6803F01003002B1BD07B681B6834
:102BCC006FF010021A617B6808221A777B681B6809
:102BDC00DB6903F44073002B03D0786800F026F90E
:102BEC0005E0786800F019F9786800F028F97B683E
:102BFC0000221A77BB6803F00103002B0CD0FB6892
:102C0C0003F00103002B07D07B681B686FF00102F7
:102C1C001A617868FEF7B8FCBB6803F08003002BE0
:102C2C000CD0FB6803F08003002B07D07B681B687B
:102C3C006FF080021A61786800F06FFABB6803F0DD
:102C4C004003002B0CD0FB6803F04003002B07D093
:102C5C007B681B686FF040021A61786800F0F8F826
:102C6C00BB6803F02003002B0CD0FB6803F020039F
:102C7C00002B07D07B681B686FF020021A61786804
:102C8C0000F042FA00BF1037BD4680BD80B584B05D
:102C9C0000AF786039600023FB737B6893F83C309D
:102CAC00012B01D10223B4E07B68012283F83C2084
:102CBC007B68022283F83D207B681B689B68BB60A5
:102CCC00BB6823F07703BB60BB6823F47F43BB6016
:102CDC007B681B68BA689A603B681B68B3F5005F39
:102CEC003ED0B3F5005F00F28780B3F5805F00F053
:102CFC008680B3F5805F7FD8702B1AD0702B7BD871
:102D0C00602B50D0602B77D8502B3CD0502B73D8E5
:102D1C00402B58D0402B6FD8302B64D0302B6BD835
:102D2C00202B60D0202B67D8002B5CD0102B5AD0D6
:102D3C0062E07B6818683B6899683B685A683B6836
:102D4C00DB6800F06AF97B681B689B68BB60BB683A
:102D5C0043F07703BB607B681B68BA689A604FE0EE
:102D6C007B6818683B6899683B685A683B68DB6805
:102D7C0000F053F97B681B689A687B681B6842F407
:102D8C0080429A603CE07B6818683B6859683B68F5
:102D9C00DB681A4600F0CAF87B681B68502118469D
:102DAC0000F021F92CE07B6818683B6859683B6897
:102DBC00DB681A4600F0E8F87B681B68602118464F
:102DCC0000F011F91CE07B6818683B6859683B6897
:102DDC00DB681A4600F0AAF87B681B68402118468D
:102DEC0000F001F90CE07B681A683B681B68194617
:102DFC00104600F0F8F803E00123FB7300E000BF7D
:102E0C007B68012283F83D207B68002283F83C20FC
:102E1C00FB7B18461037BD4680BD80B483B000AF35
:102E2C00786000BF0C37BD4680BC704780B483B05F
:102E3C0000AF786000BF0C37BD4680BC704780B4D3
:102E4C0083B000AF786000BF0C37BD4680BC7047C4
:102E5C0080B483B000AF786000BF0C37BD4680BC37
:102E6C007047000080B485B000AF786039607B6833
:102E7C001B68FB607B682B4A934207D07B68B3F1DD
:102E8C00804F03D07B68284A934208D1FB6823F01B
:102E9C007003FB603B685B68FA681343FB607B68FC
:102EAC00204A934207D07B68B3F1804F03D07B68F4
:102EBC001D4A934208D1FB6823F44073FB603B68C6
:102ECC00DB68FA681343FB60FB6823F080023B6805
:102EDC005B691343FB607B68FA681A603B689A680D
:102EEC007B68DA623B681A687B689A627B680D4A79
:102EFC00934203D13B681A697B681A637B68012291
:102F0C005A617B681B6903F00103002B05D07B68B9
:102F1C001B6923F001027B681A6100BF1437BD46A0
:102F2C0080BC7047002C01400004004080B487B086
:102F3C0000AFF860B9607A60FB681B6A7B61FB6864
:102F4C001B6A23F00102FB681A62FB689B693B61F8
:102F5C003B6923F0F0033B617B681B013A69134327
:102F6C003B617B6923F00A037B617A69BB6813437D
:102F7C007B61FB683A699A61FB687A691A6200BFE7
:102F8C001C37BD4680BC704780B487B000AFF8607A
:102F9C00B9607A60FB681B6A7B61FB681B6A23F073
:102FAC001002FB681A62FB689B693B613B6923F466
:102FBC0070433B617B681B033A6913433B617B693C
:102FCC0023F0A0037B61BB681B017A6913437B610F
:102FDC00FB683A699A61FB687A691A6200BF1C3710
:102FEC00BD4680BC704780B485B000AF7860396056
:102FFC007B689B68FB60FB6823F07003FB603A689E
:10300C00FB68134343F00703FB607B68FA689A6024
:10301C0000BF1437BD4680BC704780B487B000AF8A
:10302C00F860B9607A603B60FB689B687B617B6988
:10303C0023F47F437B613B681A027B681A43BB68AD
:10304C0013437A6913437B61FB687A699A6000BF0A
:10305C001C37BD4680BC704780B485B000AF78602B
:10306C0039607B6893F83C30012B01D1022341E09D
:10307C007B68012283F83C207B68022283F83D2088
:10308C007B681B685B68FB607B681B689B68BB602C
:10309C00FB6823F07003FB603B681B68FA68134302
:1030AC00FB607B681B68FA685A607B681B68144A73
:1030BC00934209D07B681B68B3F1804F04D07B68C6
:1030CC001B68104A93420CD1BB6823F08003BB6091
:1030DC003B685B68BA681343BB607B681B68BA6863
:1030EC009A607B68012283F83D207B68002283F87C
:1030FC003C20002318461437BD4680BC704700BFE7
:10310C00002C01400004004080B483B000AF786014
:10311C0000BF0C37BD4680BC704780B483B000AF95
:10312C00786000BF0C37BD4680BC70470346024434
:10313C00934200D1704703F8011BF9E770B50026E4
:10314C000C4D0D4C641BA410A64209D100F01AF8CA
:10315C0000260A4D0A4C641BA410A64205D170BD72
:10316C0055F8043B98470136EEE755F8043B984771
:10317C000136F2E7CC310008CC310008CC31000824
:10318C00D0310008F8B500BFF8BC08BC9E467047AB
:0C319C00F8B500BFF8BC08BC9E467047A8
:1031A80000000000000000000102030406070809EF
:1031B80002030405060708090A0B0C0D0E0F101070
:0431C8000102000000
:0431CC0031010008C5
:0431D0000D010008E5
:1031D40001000000010000000100000001000000E7
:1031E40001000000010000000100000001000000D7
:1031F400010000000100000000127A000A00000033
:083204001000000001000000B1
:0400000508001B11C3
:00000001FF
