:020000040800F2
:1000000000280020051300080D1100081511000834
:100010001D110008251100082D1100080000000026
:100020000000000000000000000000003511000882
:1000300041110008000000004D110008591100088E
:100040004D1300084D1300084D1300084D13000810
:100050004D1300084D1300084D1300084D13000800
:100060004D1300084D1300084D1300084D130008F0
:100070004D1300084D1300084D1300084D130008E0
:100080004D1300084D1300084D1300084D130008D0
:100090004D1300084D1300084D1300084D130008C0
:1000A0004D1300084D1300084D1300084D130008B0
:1000B000651100084D130008000000004D130008F2
:1000C0004D13000800000000000000004D13000860
:1000D000000000004D1300084D1300080000000050
:1000E0004D1300084D1300084D13000800000000D8
:1000F0000000000000000000000000000000000000
:0C01000000000000000000005FF808F1A3
:10010C0010B5054C237833B9044B13B10448AFF345
:10011C0000800123237010BD14000020000000009B
:10012C005429000808B5034B1BB103490348AFF32E
:10013C00008008BD000000001800002054290008B1
:10014C0080B500AF0D4B05221A600D4B03221A60CF
:10015C000A4B1B68184600F0FBFA094B1B68184643
:10016C0000F086FC0021002001F016F800F00CF8DD
:10017C00044B00221A6000BF80BD00BF4C00002061
:10018C00500000203000002080B500AF064B052247
:10019C001A60064B03221A6040F6B831012000F0B9
:1001AC00FBFF00BF80BD00BF4C00002050000020B2
:1001BC0080B500AF044B02221A604FF4FA610120A3
:1001CC0000F0EAFF00BF80BD5000002080B500AFFA
:1001DC00064B03221A60064B05221A6040F6B83112
:1001EC00012000F0D9FF00BF80BD00BF4C000020F3
:1001FC005000002080B500AF044B02221A604FF46F
:10020C00FA61012000F0C8FF00BF80BD4C00002047
:10021C0080B400AF00BFBD4680BC704780B400AF57
:10022C0000BFBD4680BC704780B500AF00F0FCFF3E
:10023C00002000F0A1FF0346002B18D00D4B1B68CB
:10024C00184600F085FA0C4B1B68184600F010FCA1
:10025C00084B1B68013B074A1360074B1B68013BAB
:10026C00054A13604FF47A71002000F095FF00BF2F
:10027C0080BD00BF4C0000205000002080B500AFB6
:10028C0000F0F8FF002000F077FF0346002B18D099
:10029C000D4B1B68184600F05BFA0C4B1B6818469C
:1002AC0000F0E6FB084B1B68013B074A1360074B49
:1002BC001B68013B054A13604FF47A71002000F073
:1002CC006BFF00BF80BD00BF4C0000205000002021
:1002DC0080B500AF00F0E0FF002000F04DFF0346BA
:1002EC00002B18D00D4B1B68184600F031FA0C4B44
:1002FC001B68184600F0BCFB084B1B68013B074A07
:10030C001360074B1B68013B054A13604FF47A716D
:10031C00002000F041FF00BF80BD00BF4C0000205A
:10032C005000002080B500AF00F0D0FF002000F09E
:10033C0023FF0346002B18D00D4B1B68184600F00A
:10034C0007FA0C4B1B68184600F092FB084B1B6815
:10035C00013B074A1360074B1B68013B054A1360BE
:10036C004FF47A71002000F017FF00BF80BD00BF72
:10037C004C0000205000002080B500AF042000F09D
:10038C00E7F9044B5B78012B02D1034B04221A6072
:10039C0000BF80BD340000203000002080B500AFCD
:1003AC00052000F0D5F900BF80BD80B500AF062058
:1003BC0000F0CEF900BF80BD80B500AF534B1B6879
:1003CC00062B00F2918001A252F823F0F5030008ED
:1003DC0023040008510400087F040008AD04000841
:1003EC00C5040008DD040008FFF71EFF012000F023
:1003FC00C3FE0346002B04D0FFF7DAFE434B012269
:10040C001A60434B1B78012B70D1FFF701FF3F4B58
:10041C0004221A606AE0FFF731FF012000F0ACFE05
:10042C000346002B04D0FFF7D1FE384B02221A6092
:10043C00374B1B78012B5BD1FFF7EAFE334B0422C1
:10044C001A6055E0FFF744FF012000F095FE0346CB
:10045C00002B04D0FFF7CEFE2C4B03221A602C4B42
:10046C001B78012B46D1FFF7D3FE284B04221A60D0
:10047C0040E0FFF757FF012000F07EFE0346002B03
:10048C0004D0FFF781FE214B00221A60204B1B7811
:10049C00012B31D1FFF7BCFE1C4B04221A602BE060
:1004AC00FFF76AFF1A4B1B78012B27D1FFF7B6FE1B
:1004BC00164B05221A6021E0FFF770FF144B1B78D6
:1004CC00012B1DD1FFF7AAFE104B06221A6017E074
:1004DC00FFF76BFF0E4B1B78012B13D1FFF754FE6C
:1004EC000A4B00221A600DE000BF0CE000BF0AE0CE
:1004FC0000BF08E000BF06E000BF04E000BF02E060
:10050C0000BF00E000BF00BF80BD00BF3000002076
:10051C003400002080B582B000AF00237B604CE03B
:10052C002A4A7B6813441B78022B30D0022B41DC07
:10053C00002B02D0012B0ED03CE07B68DBB21846BE
:10054C0000F046F80346002B2FD0204A7B6813445A
:10055C0001221A7029E07B68DBB2184600F038F8EB
:10056C000346002B05D1194A7B68134400221A70EC
:10057C001DE07B68DBB2184600F044F80346002B04
:10058C0015D0124A7B68134402221A700FE07B6864
:10059C00DBB2184600F01CF80346002B09D10B4ABD
:1005AC007B68134400221A7003E000BF02E000BF16
:1005BC0000E000BF7B6801337B607B68022BAFDD02
:1005CC0000BF00BF0837BD4680BD00BF340000200F
:1005DC0080B483B000AF0346FB71FB79022B01D9C9
:1005EC00002307E0FB79064AD35C002B0CBF0123E8
:1005FC000023DBB218460C37BD4680BC704700BFE9
:10060C000000002080B483B000AF0346FB71FB797F
:10061C00022B01D9FF2307E0FB79064AD35C012B9F
:10062C000CBF01230023DBB218460C37BD4680BC3F
:10063C00704700BF4000002080B582B000AF00239F
:10064C007B6071E03C4A7B68134419783B4A7B68B9
:10065C0013440A461A707B68002B0BD101213848D1
:10066C0001F05CF903461946334A7B6813440A4689
:10067C001A701CE07B68012B0BD10221304801F071
:10068C004DF9034619462C4A7B6813440A461A70E6
:10069C000DE07B68022B0AD10421294801F03EF9B8
:1006AC0003461946244A7B6813440A461A70224AA8
:1006BC007B6813441A7821497B680B441B789A4257
:1006CC002FD11D4A7B68134419781E4A7B6813444A
:1006DC000A461A701B4A7B6813441B78002B16D1F0
:1006EC00194A7B6832F81330632B0AD8164A7B6898
:1006FC0032F81330013399B2134A7B6822F8131085
:10070C000FE0124A7B68134401221A7009E00E4A6A
:10071C007B68002122F813100C4A7B6813440022DA
:10072C001A707B6801337B607B68022B8ADD00BF0B
:10073C0000BF0837BD4680BD380000203C000020BB
:10074C00000C01400000002044000020400000206C
:10075C0080B582B000AF78607B68002B23D100227B
:10076C000121C24801F0F1F800220221BF4801F03A
:10077C00ECF800220421BD4801F0E7F80022082122
:10078C00BA4801F0E2F800221021B84801F0DDF877
:10079C0000222021B54801F0D8F801224021B348AD
:1007AC0001F0D3F85DE17B68012B23D101220121FB
:1007BC00AE4801F0CAF800220221AC4801F0C5F89D
:1007CC0000220421A94801F0C0F801220821A74801
:1007DC0001F0BBF801221021A44801F0B6F8012267
:1007EC002021A24801F0B1F8012240219F4801F0DC
:1007FC00ACF836E17B68022B23D1002201219B4807
:10080C0001F0A3F800220221984801F09EF8012281
:10081C000421964801F099F800220821934801F030
:10082C0094F800221021914801F08FF80122202128
:10083C008E4801F08AF8002240218C4801F085F89E
:10084C000FE17B68032B23D100220121874801F0A3
:10085C007CF800220221854801F077F8002204215F
:10086C00824801F072F800220821804801F06DF8EE
:10087C00012210217D4801F068F8012220217B48DB
:10088C0001F063F800224021784801F05EF8E8E0BE
:10089C007B68042B23D101220121744801F055F807
:1008AC0000220221714801F050F8002204216F4807
:1008BC0001F04BF8012208216C4801F046F80122A6
:1008CC0010216A4801F041F800222021674801F00C
:1008DC003CF800224021654801F037F8C1E07B6804
:1008EC00052B23D100220121604801F02EF80122B2
:1008FC0002215E4801F029F8002204215B4801F036
:10090C0024F800220821594801F01FF80122102177
:10091C00564801F01AF800222021544801F015F82D
:10092C0000224021514801F010F89AE07B68062B18
:10093C0023D1002201214D4801F007F801220221A8
:10094C004A4801F002F800220421484800F0FDFF5B
:10095C0000220821454800F0F8FF002210214348EE
:10096C0000F0F3FF00222021404800F0EEFF0022AF
:10097C0040213E4800F0E9FF73E07B68072B23D150
:10098C0000220121394800F0E0FF00220221374803
:10099C0000F0DBFF00220421344800F0D6FF0122D6
:1009AC000821324800F0D1FF012210212F4800F01D
:1009BC00CCFF012220212D4800F0C7FF012240214D
:1009CC002A4800F0C2FF4CE07B68082B23D10022A0
:1009DC000121264800F0B9FF00220221234800F033
:1009EC00B4FF00220421214800F0AFFF00220821AF
:1009FC001E4800F0AAFF002210211C4800F0A5FFA1
:100A0C0000222021194800F0A0FF002240211748A5
:100A1C0000F09BFF25E07B68092B22D100220121ED
:100A2C00124800F092FF00220221104800F08DFFC6
:100A3C00002204210D4800F088FF002208210B48F9
:100A4C0000F083FF01221021084800F07EFF0022F5
:100A5C002021064800F079FF00224021034800F0D5
:100A6C0074FF00BF0837BD4680BD00BF00080140C1
:100A7C0080B582B000AF78607B68002B2AD1002251
:100A8C004FF48071CB4800F060FF00224FF40071EE
:100A9C00C84800F05AFF00224FF48061C54800F0AE
:100AAC0054FF00224FF40061C24800F04EFF0022B8
:100ABC004FF48051BF4800F048FF00224FF4005122
:100ACC00BC4800F042FF01224FF48041B94800F0CD
:100ADC003CFF9EE17B68012B2AD101224FF48071EF
:100AEC00B44800F032FF00224FF40071B14800F01E
:100AFC002CFF00224FF48061AE4800F026FF01224B
:100B0C004FF40061AB4800F020FF01224FF48051FC
:100B1C00A84800F01AFF01224FF40051A54800F03C
:100B2C0014FF01224FF48041A24800F00EFF70E147
:100B3C007B68022B2AD100224FF480719D4800F073
:100B4C0004FF00224FF400719A4800F0FEFE0122CF
:100B5C004FF48061974800F0F8FE00224FF40061DA
:100B6C00944800F0F2FE00224FF48051914800F0BE
:100B7C00ECFE01224FF400518E4800F0E6FE0022FC
:100B8C004FF480418B4800F0E0FE42E17B68032B80
:100B9C002AD100224FF48071864800F0D6FE002244
:100BAC004FF40071834800F0D0FE00224FF48061B6
:100BBC00804800F0CAFE00224FF400617D4800F02E
:100BCC00C4FE01224FF480517A4800F0BEFE01228F
:100BDC004FF40051774800F0B8FE00224FF48041EA
:100BEC00744800F0B2FE14E17B68042B2AD1012278
:100BFC004FF480716F4800F0A8FE00224FF4007192
:100C0C006C4800F0A2FE00224FF48061694800F0AD
:100C1C009CFE01224FF40061664800F096FE012212
:100C2C004FF48051634800F090FE00224FF40051C5
:100C3C00604800F08AFE00224FF480415D4800F0CD
:100C4C0084FEE6E07B68052B2AD100224FF48071EC
:100C5C00584800F07AFE01224FF40071554800F01C
:100C6C0074FE00224FF48061524800F06EFE0022A8
:100C7C004FF400614F4800F068FE01224FF48051A0
:100C8C004C4800F062FE00224FF40051494800F03D
:100C9C005CFE00224FF48041464800F056FEB8E05E
:100CAC007B68062B2AD100224FF48071414800F05A
:100CBC004CFE01224FF400713E4800F046FE00222B
:100CCC004FF480613B4800F040FE00224FF400617D
:100CDC00384800F03AFE00224FF48051354800F0BD
:100CEC0034FE00224FF40051324800F02EFE002258
:100CFC004FF480412F4800F028FE8AE07B68072BD8
:100D0C002AD100224FF480712A4800F01EFE0022E6
:100D1C004FF40071274800F018FE00224FF4806158
:100D2C00244800F012FE01224FF40061214800F02B
:100D3C000CFE01224FF480511E4800F006FE0122E9
:100D4C004FF400511B4800F000FE01224FF480418B
:100D5C00184800F0FAFD5CE07B68082B2CD10022CF
:100D6C004FF48071134800F0F0FD00224FF4007135
:100D7C00104800F0EAFD00224FF480610D4800F0AD
:100D8C00E4FD00224FF400610A4800F0DEFD002271
:100D9C004FF48051074800F0D8FD00224FF4005169
:100DAC00044800F0D2FD00224FF48041014800F0CD
:100DBC00CCFD2EE0000801407B68092B29D10022D4
:100DCC004FF48071154800F0C0FD00224FF4007103
:100DDC00124800F0BAFD00224FF480610F4800F079
:100DEC00B4FD00224FF400610C4800F0AEFD01226E
:100DFC004FF48051094800F0A8FD00224FF4005137
:100E0C00064800F0A2FD00224FF48041034800F098
:100E1C009CFD00BF0837BD4680BD00BF00080140E7
:100E2C0080B582B000AF78607B681B68B3F1804FEF
:100E3C0003D1FFF701FC00F0CDF900BF0837BD4628
:100E4C0080BD000080B500AF00F07CFA00F012F815
:100E5C0000F098F800F04AF8FFF772F9044801F036
:100E6C00BBF9FFF757FBFFF7A7FA00BFF9E700BF85
:100E7C005400002080B590B000AF07F11803282271
:100E8C000021184601F034FD3B1D00221A605A6007
:100E9C009A60DA601A610223BB610123BB621023E2
:100EAC00FB6200237B6307F11803184600F066FD14
:100EBC000346002B01D000F0C7F80F237B60002302
:100ECC00BB600023FB6000233B6100237B613B1D67
:100EDC000021184600F0D4FF0346002B01D000F08F
:100EEC00B3F800BF4037BD4680BD000080B586B06A
:100EFC0000AF07F1080300221A605A609A60DA60AA
:100F0C003B4600221A605A601D4B4FF080421A601B
:100F1C001B4B41F63F725A60194B00229A60184BDA
:100F2C000922DA60164B00221A61154B00229A61D5
:100F3C00134801F001F90346002B01D000F084F8AE
:100F4C004FF48053BB6007F1080319460C4801F0BD
:100F5C007FFA0346002B01D000F076F800233B60AB
:100F6C0000237B603B461946054801F057FC0346BD
:100F7C00002B01D000F068F800BF1837BD4680BDCB
:100F8C005400002080B586B000AF07F108030022A2
:100F9C001A605A609A60DA60284B9B69274A43F0C2
:100FAC0004039361254B9B6903F004037B607B680E
:100FBC00224B9B69214A43F0080393611F4B9B69A9
:100FCC0003F008033B603B68002247F67F711C4826
:100FDC0000F0BBFC00224FF4FC711A4800F0B5FC89
:100FEC0047F67F73BB600123FB6000233B61022348
:100FFC007B6107F108031946114800F013FB072326
:10100C00BB600023FB6000233B6107F1080319461A
:10101C000C4800F007FB4FF4FC73BB600123FB6032
:10102C0000233B6102237B6107F108031946054845
:10103C0000F0F8FA00BF1837BD4680BD0010024022
:10104C0000080140000C014080B400AF72B600BF34
:10105C0000BFFDE780B485B000AF154B9B69144A07
:10106C0043F001039361124B9B6903F00103BB60D6
:10107C00BB680F4BDB690E4A43F08053D3610C4BBA
:10108C00DB6903F080537B607B680A4B5B68FB6019
:10109C00FB6823F0E063FB60FB6843F08063FB605C
:1010AC00044AFB68536000BF1437BD4680BC7047D0
:1010BC00001002400000014080B584B000AF7860A1
:1010CC007B681B68B3F1804F13D10C4BDB690B4A67
:1010DC0043F00103D361094BDB6903F00103FB60AF
:1010EC00FB68002200211C2000F065FA1C2000F097
:1010FC007EFA00BF1037BD4680BD00BF0010024015
:10110C0080B400AF00BFFDE780B400AF00BFFDE7C7
:10111C0080B400AF00BFFDE780B400AF00BFFDE7B7
:10112C0080B400AF00BFFDE780B400AF00BFBD4688
:10113C0080BC704780B400AF00BFBD4680BC704718
:10114C0080B400AF00BFBD4680BC704780B500AF17
:10115C0000F03EF900BF80BD80B500AF024801F041
:10116C0087F800BF80BD00BF5400002080B400AFE2
:10117C0000BFBD4680BC704780B483B000AF7860C0
:10118C00044A7B6852F8233018460C37BD4680BCA5
:10119C00704700BFA400002080B483B000AF78601B
:1011AC003960094B1B683A6892FBF3F207497B687C
:1011BC0041F82320064A7B68002142F8231000BF27
:1011CC000C37BD4680BC7047080000209C000020F6
:1011DC00A400002080B483B000AF00237B6016E035
:1011EC000F4A7B6852F823305A1E0D497B6841F830
:1011FC0023200B4A7B6852F82330002B04DC094A6D
:10120C007B68012142F823107B6801337B607B688B
:10121C00012BE5DD00BF00BF0C37BD4680BC70471D
:10122C009C000020A400002080B500AF0122082102
:10123C000F4800F08AFB01224FF480710C4800F03B
:10124C0084FB002220210A4800F07FFB00221021A1
:10125C00074800F07AFB00224021054800F075FB9E
:10126C0000228021024800F070FB00BF80BD00BF4F
:10127C00000C014080B500AF00224FF4807105488E
:10128C0000F063FB01228021024800F05EFB00BFEE
:10129C0080BD00BF000C014080B500AF00220821CA
:1012AC00094800F052FB00228021074800F04DFB5A
:1012BC0001224021044800F048FB01222021024871
:1012CC0000F043FB00BF80BD000C014080B500AFB7
:1012DC0000222021074800F038FB0122102105488C
:1012EC0000F033FB01224021024800F02EFB00BF2E
:1012FC0080BD00BF000C0140FFF738FF0B480C49C4
:10130C000C4A002302E0D458C4500433C4188C4255
:10131C00F9D3094A094C002301E013600432A242BC
:10132C00FBD301F0EDFAFFF78DFD704700000020B4
:10133C00140000209829000814000020B0000020A0
:10134C00FEE7000080B500AF084B1B68074A43F06E
:10135C0010031360032000F023F90F2000F008F8AD
:10136C00FFF778FE0023184680BD00BF0020024026
:10137C0080B582B000AF7860124B1A68124B1B78A4
:10138C0019464FF47A73B3FBF1F3B2FBF3F318463F
:10139C0000F03BF90346002B01D001230EE07B68E3
:1013AC000F2B0AD8002279684FF0FF3000F003F9B8
:1013BC00064A7B681360002300E0012318460837B7
:1013CC00BD4680BD04000020100000200C00002051
:1013DC0080B400AF054B1B781A46054B1B681344B1
:1013EC00034A136000BFBD4680BC7047100000204C
:1013FC00AC00002080B400AF024B1B681846BD4601
:10140C0080BC7047AC00002080B485B000AF786021
:10141C007B6803F00703FB600C4BDB68BB60BA68AE
:10142C004FF6FF031340BB60FB681A02BB68134303
:10143C0043F0BF6343F40033BB60044ABB68D36022
:10144C0000BF1437BD4680BC704700BF00ED00E004
:10145C0080B400AF044BDB681B0A03F0070318468B
:10146C00BD4680BC704700BF00ED00E080B483B087
:10147C0000AF0346FB7197F90730002B0BDBFB79B0
:10148C0003F01F02064997F907305B09012000FAA7
:10149C0002F241F8232000BF0C37BD4680BC7047D8
:1014AC0000E100E080B483B000AF03463960FB710B
:1014BC0097F90730002B0ADB3B68DAB20C4997F935
:1014CC0007301201D2B20B4483F800230AE03B68C8
:1014DC00DAB20849FB7903F00F03043B1201D2B2D4
:1014EC000B441A7600BF0C37BD4680BC704700BF5A
:1014FC0000E100E000ED00E080B489B000AFF860DE
:10150C00B9607A60FB6803F00703FB61FB69C3F108
:10151C000703042B28BF0423BB61FB690433062B90
:10152C0002D9FB69033B00E000237B614FF0FF32E3
:10153C00BB6902FA03F3DA43BB681A407B699A4031
:10154C004FF0FF317B6901FA03F3D9437B680B4001
:10155C00134318462437BD4680BC704780B582B013
:10156C0000AF78607B68013BB3F1807F01D301232E
:10157C000FE00A4A7B68013B53600F214FF0FF30AC
:10158C00FFF790FF054B00229A60044B07221A606C
:10159C00002318460837BD4680BD00BF10E000E0B0
:1015AC0080B582B000AF78607868FFF72DFF00BF80
:1015BC000837BD4680BD80B586B000AF0346B96024
:1015CC007A60FB7300237B61FFF742FF78617A68D6
:1015DC00B9687869FFF790FF024697F90F3011460A
:1015EC001846FFF75FFF00BF1837BD4680BD80B5BA
:1015FC0082B000AF0346FB7197F907301846FFF72E
:10160C0035FF00BF0837BD4680BD80B582B000AF46
:10161C0078607868FFF7A2FF034618460837BD4686
:10162C0080BD000080B48BB000AF786039600023BF
:10163C007B6200233B6261E101227B6A02FA03F3C5
:10164C00FB613B681B68FA691340BB61BA69FB69B3
:10165C009A4240F050813B685B68974A93425ED057
:10166C00954A934275D8954A934258D0934A9342DF
:10167C006FD8934A934252D0914A934269D8914A77
:10168C0093424CD08F4A934263D88F4A934246D0B0
:10169C008D4A93425DD8122B2AD8122B59D801A20D
:1016AC0052F823F02B17000805170008171700082D
:1016BC00591700085F1700085F1700085F1700082C
:1016CC005F1700085F1700085F1700085F17000816
:1016DC005F1700085F1700085F1700085F17000806
:1016EC005F1700085F1700080D1700082117000886
:1016FC00764A934213D02CE03B68DB683B6229E0CE
:10170C003B68DB6804333B6224E03B68DB680833EE
:10171C003B621FE03B68DB680C333B621AE03B68C2
:10172C009B68002B02D104233B6213E03B689B684F
:10173C00012B05D108233B627B68FA691A6109E029
:10174C0008233B627B68FA695A6103E000233B6221
:10175C0000E000BFBB69FF2B01D87B6801E07B6810
:10176C0004337B61BB69FF2B02D87B6A9B0002E0D0
:10177C007B6A083B9B003B617B691A680F213B69C4
:10178C0001FA03F3DB431A40396A3B6901FA03F3AC
:10179C001A437B691A603B685B6803F08053002B2B
:1017AC0000F0A9804A4B9B69494A43F001039361BD
:1017BC00474B9B6903F00103BB60BB68454A7B6ADE
:1017CC009B08023352F82330FB607B6A03F003035F
:1017DC009B000F2202FA03F3DB43FA681340FB6011
:1017EC007B683D4A93420DD07B683C4A934207D0BC
:1017FC007B683B4A934201D1022304E0032302E0BD
:10180C00012300E000237A6A02F003029200934065
:10181C00FA681343FB602F497B6A9B080233FA6812
:10182C0041F823203B685B6803F48013002B06D03F
:10183C002C4B9A682B49BB6913438B6006E0294BF0
:10184C009A68BB69DB43274913408B603B685B6834
:10185C0003F40013002B06D0224BDA682149BB6934
:10186C001343CB6006E01F4BDA68BB69DB431D49B1
:10187C001340CB603B685B6803F40033002B06D04D
:10188C00184B5A681749BB6913434B6006E0154B5C
:10189C005A68BB69DB43134913404B603B685B6878
:1018AC0003F48033002B1FD00E4B1A680D49BB6913
:1018BC0013430B601FE000BF00003210000031101A
:1018CC000000221000002110000012100000111066
:1018DC00001002400000014000080140000C0140D3
:1018EC0000100140000401400B4B1A68BB69DB433C
:1018FC00094913400B607B6A01337B623B681A68B1
:10190C007B6A22FA03F3002B7FF496AE00BF00BF74
:10191C002C37BD4680BC70470004014080B485B0B4
:10192C0000AF78600B467B807B689A687B8813409D
:10193C00002B02D00123FB7301E00023FB73FB7B24
:10194C0018461437BD4680BC704780B483B000AFD6
:10195C0078600B467B8013467B707B78002B03D022
:10196C007A887B681A6103E07B881A047B681A61A9
:10197C0000BF0C37BD4680BC7047000080B586B0F8
:10198C0000AF78607B68002B01D1012372E27B6889
:10199C001B6803F00103002B00F08780924B5B68FF
:1019AC0003F00C03042B0CD08F4B5B6803F00C037F
:1019BC00082B12D18C4B5B6803F48033B3F5803F5A
:1019CC000BD1894B1B6803F40033002B6CD07B6864
:1019DC005B68002B68D101234CE27B685B68B3F534
:1019EC00803F06D1804B1B687F4A43F480331360E1
:1019FC002EE07B685B68002B0CD17B4B1B687A4A12
:101A0C0023F480331360784B1B68774A23F48023CC
:101A1C0013601DE07B685B68B3F5A02F0CD1724B93
:101A2C001B68714A43F4802313606F4B1B686E4A2A
:101A3C0043F4803313600BE06B4B1B686A4A23F44E
:101A4C0080331360684B1B68674A23F48023136050
:101A5C007B685B68002B13D0FFF7CCFC386108E087
:101A6C00FFF7C8FC02463B69D31A642B01D9032348
:101A7C0000E25D4B1B6803F40033002BF0D014E044
:101A8C00FFF7B8FC386108E0FFF7B4FC02463B698D
:101A9C00D31A642B01D90323ECE1534B1B6803F4D9
:101AAC000033002BF0D100E000BF7B681B6803F013
:101ABC000203002B63D04C4B5B6803F00C03002B30
:101ACC000BD0494B5B6803F00C03082B1CD1464B25
:101ADC005B6803F48033002B16D1434B1B6803F077
:101AEC000203002B05D07B681B69012B01D001235D
:101AFC00C0E13D4B1B6823F0F8027B685B69DB009F
:101B0C00394913430B603AE07B681B69002B20D0EA
:101B1C00364B01221A60FFF76DFC386108E0FFF7C5
:101B2C0069FC02463B69D31A022B01D90323A1E1BC
:101B3C002D4B1B6803F00203002BF0D02A4B1B68C3
:101B4C0023F0F8027B685B69DB00274913430B60C9
:101B5C0015E0264B00221A60FFF74CFC386108E0B8
:101B6C00FFF748FC02463B69D31A022B01D9032329
:101B7C0080E11D4B1B6803F00203002BF0D17B6846
:101B8C001B6803F00803002B3AD07B689B69002B81
:101B9C0019D0174B01221A60FFF72CFC386108E0B2
:101BAC00FFF728FC02463B69D31A022B01D9032309
:101BBC0060E10D4B5B6A03F00203002BF0D00120B7
:101BCC0000F09CFA1CE00A4B00221A60FFF712FC92
:101BDC0038610FE0FFF70EFC02463B69D31A022B6B
:101BEC0008D9032346E100BF001002400000424226
:101BFC0080044242924B5B6A03F00203002BE9D152
:101C0C007B681B6803F00403002B00F0A680002304
:101C1C00FB758B4BDB6903F08053002B0DD1884B8C
:101C2C00DB69874A43F08053D361854BDB6903F052
:101C3C008053BB60BB680123FB75824B1B6803F4AC
:101C4C008073002B18D17F4B1B687E4A43F4807342
:101C5C001360FFF7CFFB386108E0FFF7CBFB0246C0
:101C6C003B69D31A642B01D9032303E1754B1B6821
:101C7C0003F48073002BF0D07B68DB68012B06D15A
:101C8C006F4B1B6A6E4A43F0010313622DE07B68B5
:101C9C00DB68002B0CD16A4B1B6A694A23F00103E9
:101CAC001362674B1B6A664A23F0040313621CE041
:101CBC007B68DB68052B0CD1614B1B6A604A43F0D7
:101CCC00040313625E4B1B6A5D4A43F0010313620B
:101CDC000BE05B4B1B6A5A4A23F001031362584B0F
:101CEC001B6A574A23F0040313627B68DB68002BE2
:101CFC0015D0FFF77FFB38610AE0FFF77BFB02464C
:101D0C003B69D31A41F28832934201D90323B1E0E3
:101D1C004B4B1B6A03F00203002BEED014E0FFF7D1
:101D2C0069FB38610AE0FFF765FB02463B69D31A91
:101D3C0041F28832934201D903239BE0404B1B6A4A
:101D4C0003F00203002BEED1FB7D012B05D13C4BA4
:101D5C00DB693B4A23F08053D3617B68DB69002B42
:101D6C0000F08780364B5B6803F00C03082B61D0C6
:101D7C007B68DB69022B46D1334B00221A60FFF7DC
:101D8C0039FB386108E0FFF735FB02463B69D31A93
:101D9C00022B01D903236DE0294B1B6803F0007360
:101DAC00002BF0D17B681B6AB3F5803F08D1244B24
:101DBC005B6823F400327B689B68214913434B60BA
:101DCC001F4B5B6823F474127B68196A7B685B6A2F
:101DDC000B431B4913434B601B4B01221A60FFF74B
:101DEC0009FB386108E0FFF705FB02463B69D31A93
:101DFC00022B01D903233DE0114B1B6803F0007348
:101E0C00002BF0D035E0104B00221A60FFF7F2FAED
:101E1C00386108E0FFF7EEFA02463B69D31A022B51
:101E2C0001D9032326E0064B1B6803F00073002B3B
:101E3C00F0D11EE07B68DB69012B07D1012319E08F
:101E4C000010024000700040600042420B4B5B6887
:101E5C00FB60FB6803F480327B681B6A9A4206D1F4
:101E6C00FB6803F470127B685B6A9A4201D0012311
:101E7C0000E0002318461837BD4680BD0010024014
:101E8C0080B584B000AF786039607B68002B01D1DD
:101E9C000123D0E06A4B1B6803F007033A689A42AF
:101EAC0010D9674B1B6823F0070265493B68134345
:101EBC000B60634B1B6803F007033A689A4201D02E
:101ECC000123B8E07B681B6803F00203002B20D0D1
:101EDC007B681B6803F00403002B05D0594B5B682F
:101EEC00584A43F4E06353607B681B6803F00803B3
:101EFC00002B05D0534B5B68524A43F4605353603C
:101F0C00504B5B6823F0F0027B689B684D49134390
:101F1C004B607B681B6803F00103002B40D07B688F
:101F2C005B68012B07D1474B1B6803F40033002B74
:101F3C0015D101237FE07B685B68022B07D1414BF5
:101F4C001B6803F00073002B09D1012373E03D4B98
:101F5C001B6803F00203002B01D101236BE0394B0A
:101F6C005B6823F003027B685B68364913434B6064
:101F7C00FFF740FAF8600AE0FFF73CFA0246FB680C
:101F8C00D31A41F28832934201D9032353E02D4BEB
:101F9C005B6803F00C027B685B689B009A42EBD198
:101FAC00274B1B6803F007033A689A4210D2244B64
:101FBC001B6823F0070222493B6813430B60204B3C
:101FCC001B6803F007033A689A4201D0012332E000
:101FDC007B681B6803F00403002B08D0194B5B686B
:101FEC0023F4E0627B68DB68164913434B607B6823
:101FFC001B6803F00803002B09D0124B5B6823F419
:10200C0060527B681B69DB000E4913434B6000F088
:10201C0021F802460B4B5B681B0903F00F030A49BE
:10202C00CB5C22FA03F3094A1360094B1B68184670
:10203C00FFF79EF9002318461037BD4680BD00BF40
:10204C0000200240001002406C290008040000200F
:10205C000C00002080B487B000AF0023FB6000238D
:10206C00BB6000237B6100237B6000233B611E4B24
:10207C005B68FB60FB6803F00C03042B02D0082B9D
:10208C0003D027E0194B3B6127E0FB689B0C03F066
:10209C000F03174AD35C7B60FB6803F48033002B7F
:1020AC0010D0114B5B685B0C03F00103114AD35C3D
:1020BC00BB607B680D4A03FB02F2BB68B2FBF3F317
:1020CC007B6104E07B680C4A02FB03F37B617B6958
:1020DC003B6102E0054B3B6100BF3B6918461C3776
:1020EC00BD4680BC704700BF0010024000127A0051
:1020FC007C2900088C29000800093D0080B485B0BB
:10210C0000AF78600A4B1B680A4AA2FB03235B0AE8
:10211C007A6802FB03F3FB6000BFFB685A1EFA608F
:10212C00002BF9D100BF00BF1437BD4680BC7047EF
:10213C0004000020D34D621080B582B000AF7860EF
:10214C007B68002B01D1012341E07B6893F83D3083
:10215C00DBB2002B06D17B68002283F83C20786828
:10216C00FEF7AAFF7B68022283F83D207B681A6881
:10217C007B6804331946104600F056FA7B6801223E
:10218C0083F846207B68012283F83E207B6801227D
:10219C0083F83F207B68012283F840207B68012272
:1021AC0083F841207B68012283F842207B6801225E
:1021BC0083F843207B68012283F844207B6801224A
:1021CC0083F845207B68012283F83D2000231846C4
:1021DC000837BD4680BD000080B485B000AF786084
:1021EC007B6893F83D30DBB2012B01D0012335E045
:1021FC007B68022283F83D207B681B68DA687B6869
:10220C001B6842F00102DA607B681B68164A934235
:10221C0009D07B681B68B3F1804F04D07B681B68C6
:10222C00124A934211D17B681B689B6803F0070329
:10223C00FB60FB68062B10D07B681B681A687B68F8
:10224C001B6842F001021A6007E07B681B681A6881
:10225C007B681B6842F001021A6000231846143791
:10226C00BD4680BC704700BF002C014000040040FC
:10227C0080B584B000AF78607B681B68DB68FB605E
:10228C007B681B681B69BB60BB6803F00203002BF7
:10229C0020D0FB6803F00203002B1BD07B681B686B
:1022AC006FF002021A617B6801221A777B681B6847
:1022BC009B6903F00303002B03D0786800F098F9B6
:1022CC0005E0786800F08BF9786800F09AF97B6883
:1022DC0000221A77BB6803F00403002B20D0FB68A4
:1022EC0003F00403002B1BD07B681B686FF0040207
:1022FC001A617B6802221A777B681B689B6903F45E
:10230C004073002B03D0786800F072F905E0786810
:10231C0000F065F9786800F074F97B6800221A7790
:10232C00BB6803F00803002B20D0FB6803F0080304
:10233C00002B1BD07B681B686FF008021A617B684E
:10234C0004221A777B681B68DB6903F00303002BFC
:10235C0003D0786800F04CF905E0786800F03FF99C
:10236C00786800F04EF97B6800221A77BB6803F09E
:10237C001003002B20D0FB6803F01003002B1BD0A4
:10238C007B681B686FF010021A617B6808221A7751
:10239C007B681B68DB6903F44073002B03D07868FF
:1023AC0000F026F905E0786800F019F9786800F07B
:1023BC0028F97B6800221A77BB6803F00103002B15
:1023CC000CD0FB6803F00103002B07D07B681B6863
:1023DC006FF001021A617868FEF722FDBB6803F00A
:1023EC008003002B0CD0FB6803F08003002B07D07C
:1023FC007B681B686FF080021A61786800F06FFAD6
:10240C00BB6803F04003002B0CD0FB6803F04003C7
:10241C00002B07D07B681B686FF040021A6178684C
:10242C0000F0F8F8BB6803F02003002B0CD0FB681D
:10243C0003F02003002B07D07B681B686FF0200291
:10244C001A61786800F042FA00BF1037BD4680BDB3
:10245C0080B584B000AF786039600023FB737B6873
:10246C0093F83C30012B01D10223B4E07B680122AC
:10247C0083F83C207B68022283F83D207B681B6834
:10248C009B68BB60BB6823F07703BB60BB6823F41D
:10249C007F43BB607B681B68BA689A603B681B68AB
:1024AC00B3F5005F3ED0B3F5005F00F28780B3F563
:1024BC00805F00F08680B3F5805F7FD8702B1AD0D8
:1024CC00702B7BD8602B50D0602B77D8502B3CD006
:1024DC00502B73D8402B58D0402B6FD8302B64D056
:1024EC00302B6BD8202B60D0202B67D8002B5CD0E6
:1024FC00102B5AD062E07B6818683B6899683B687F
:10250C005A683B68DB6800F06AF97B681B689B685B
:10251C00BB60BB6843F07703BB607B681B68BA6821
:10252C009A604FE07B6818683B6899683B685A680A
:10253C003B68DB6800F053F97B681B689A687B6822
:10254C001B6842F480429A603CE07B6818683B68E8
:10255C0059683B68DB681A4600F0CAF87B681B6850
:10256C005021184600F021F92CE07B6818683B6874
:10257C0059683B68DB681A4600F0E8F87B681B6812
:10258C006021184600F011F91CE07B6818683B6864
:10259C0059683B68DB681A4600F0AAF87B681B6830
:1025AC004021184600F001F90CE07B681A683B6882
:1025BC001B681946104600F0F8F803E00123FB7382
:1025CC0000E000BF7B68012283F83D207B6800227D
:1025DC0083F83C20FB7B18461037BD4680BD80B489
:1025EC0083B000AF786000BF0C37BD4680BC70472D
:1025FC0080B483B000AF786000BF0C37BD4680BCA0
:10260C00704780B483B000AF786000BF0C37BD4614
:10261C0080BC704780B483B000AF786000BF0C37CB
:10262C00BD4680BC7047000080B485B000AF7860B8
:10263C0039607B681B68FB607B682B4A934207D030
:10264C007B68B3F1804F03D07B68284A934208D152
:10265C00FB6823F07003FB603B685B68FA6813430C
:10266C00FB607B68204A934207D07B68B3F1804FB4
:10267C0003D07B681D4A934208D1FB6823F4407356
:10268C00FB603B68DB68FA681343FB60FB6823F074
:10269C0080023B685B691343FB607B68FA681A60D5
:1026AC003B689A687B68DA623B681A687B689A6256
:1026BC007B680D4A934203D13B681A697B681A63A5
:1026CC007B6801225A617B681B6903F00103002BB4
:1026DC0005D07B681B6923F001027B681A6100BF7F
:1026EC001437BD4680BC7047002C014000040040EC
:1026FC0080B487B000AFF860B9607A60FB681B6A81
:10270C007B61FB681B6A23F00102FB681A62FB68A1
:10271C009B693B613B6923F0F0033B617B681B01C8
:10272C003A6913433B617B6923F00A037B617A6945
:10273C00BB6813437B61FB683A699A61FB687A69F1
:10274C001A6200BF1C37BD4680BC704780B487B08E
:10275C0000AFF860B9607A60FB681B6A7B61FB684C
:10276C001B6A23F01002FB681A62FB689B693B61D1
:10277C003B6923F470433B617B681B033A69134349
:10278C003B617B6923F0A0037B61BB681B017A6909
:10279C0013437B61FB683A699A61FB687A691A6238
:1027AC0000BF1C37BD4680BC704780B485B000AFFD
:1027BC00786039607B689B68FB60FB6823F0700372
:1027CC00FB603A68FB68134343F00703FB607B68CC
:1027DC00FA689A6000BF1437BD4680BC704780B45D
:1027EC0087B000AFF860B9607A603B60FB689B68AB
:1027FC007B617B6923F47F437B613B681A027B68B6
:10280C001A43BB6813437A6913437B61FB687A698B
:10281C009A6000BF1C37BD4680BC704780B485B041
:10282C0000AF786039607B6893F83C30012B01D1A4
:10283C00022341E07B68012283F83C207B68022262
:10284C0083F83D207B681B685B68FB607B681B68BA
:10285C009B68BB60FB6823F07003FB603B681B68E4
:10286C00FA681343FB607B681B68FA685A607B68E4
:10287C001B68144A934209D07B681B68B3F1804FE4
:10288C0004D07B681B68104A93420CD1BB6823F0C0
:10289C008003BB603B685B68BA681343BB607B68B2
:1028AC001B68BA689A607B68012283F83D207B68BC
:1028BC00002283F83C20002318461437BD4680BC08
:1028CC00704700BF002C01400004004080B483B06E
:1028DC0000AF786000BF0C37BD4680BC704780B439
:1028EC0083B000AF786000BF0C37BD4680BC70472A
:1028FC0003460244934200D1704703F8011BF9E7E9
:10290C0070B500260C4D0D4C641BA410A64209D1C9
:10291C0000F01AF800260A4D0A4C641BA410A642BB
:10292C0005D170BD55F8043B98470136EEE755F8D4
:10293C00043B98470136F2E79029000890290008DB
:10294C009029000894290008F8B500BFF8BC08BC11
:10295C009E467047F8B500BFF8BC08BC9E46704751
:10296C000000000000000000010203040607080933
:10297C0002030405060708090A0B0C0D0E0F1010B4
:04298C000102000044
:042990003101000809
:042994000D01000829
:102998000101010000127A000A0000001000000086
:0429A800010000002A
:0400000508001305D7
:00000001FF
